:100000000C94FF000C9427010C9427010C942701F9
:100010000C9427010C9427010C9427010C942701C0
:100020000C9427010C9427010C9427010C942701B0
:100030000C9427010C9427010C9427010C942701A0
:100040000C94D5070C9427010C94AB090C94DD0992
:100050000C9427010C9427010C9427010C94270180
:100060000C9427010C94270140524330303030313A
:100070002020202020202020202020202020202080
:100080002020202020202020202020202020202070
:100090002020202020202020202020202020202060
:1000A000202020202020202020202020202025303B
:1000B00039322300574330303030310020202020A7
:1000C000202020202020202020202020202031330C
:1000D00030202031333020202020323020202020BA
:1000E000323020202031202032303020302020209B
:1000F0003120202020203120203120200000407A93
:1001000010F35A00A0724E18090010A5D4E80000A0
:10011000E87648170000E40B54020000CA9A3B003E
:100120000000E1F505000080969800000040420FB5
:10013000000000A08601000000102700000000E879
:1001400003000000006400000000000A000000003E
:10015000000100000000002C76D888DC674F0823DF
:10016000DFC1DFAE59E1B1B796E5E3E453C63AE645
:1001700051997696E8E6C28426EB898C9B62ED4025
:100180007C6FFCEFBC9C9F40F2BAA56FA5F4900574
:100190005A2AF75C936B6CF9676DC11BFCE0E40DA8
:1001A00047FEF520E6B500D0ED902E03009435779C
:1001B000050080841E080000204E0A000000C80CC4
:1001C000333333330F986E12831141EF8D2114892D
:1001D0003BE65516CFFEE6DB18D1844B381BF77C87
:1001E0001D901DA4BBE424203284725E228100C9CC
:1001F000F124ECA1E53D270035010D0A670111242A
:100200001FBECFEFD8E0DEBFCDBF11E0A0E0B1E070
:10021000E8ECF8E202C005900D92A834B107D9F7D6
:1002200022E0A8E4B1E001C01D92A439B207E1F7D1
:1002300011E0CCEFD1E004C02297FE010E94AA0E8B
:10024000C83FD107C9F70E94510A0C9457140C9467
:1002500000008EE491E00E94160B88E491E00E9479
:10026000160B88E591E00C94160B40E050E0BA01C3
:1002700087EB91E00E94AD0720E030E0A90160E04B
:1002800070E084EA91E00E94D80640E050E0BA01B4
:1002900081E791E00E94AD0720E030E0A90160E035
:1002A00070E08EE591E00E94D80662E271E088E598
:1002B00091E00E94840B62E271E088E491E00E9488
:1002C000840B62E271E08EE491E00C94840B0C9458
:1002D000290126E040E052EC61E070E083EF91E01C
:1002E0000E94490968EC70E088E591E00E94470BA4
:1002F00064EA71E087EB91E00E94630768EB71E0CC
:1003000084EA91E00E94060748EC50E060E070E06B
:1003100084EA91E00E948E066EE571E081E791E04B
:100320000E94630769E675E08EE591E00E9406078A
:1003300040E050E0BA018EE591E00E948E066CEB41
:1003400070E088E491E00E94BE0C6CEB70E08EE4FB
:1003500091E00C94BE0C8091560190915701029748
:100360001CF487EB91E002C081E791E00C940A074E
:100370001F93CF93DF9300D000D000D0CDB7DEB76E
:1003800083EF91E00E94660818161906DCF54AE032
:1003900063EF71E0CE0101960E94EE0ABE016F5F2D
:1003A0007F4F88E591E00E94110CCE0101960E94DA
:1003B000160B83EF91E00E94C20864EB70E0CE015F
:1003C00001960E94DF0CBE016F5F7F4F88E591E0D0
:1003D0000E949B0D182FCE0101960E94160B11232F
:1003E00089F081E090E0909357018093560168E690
:1003F00070E083EF91E00E94880A6AE083EF91E069
:100400000E94B90A8091560190915701019749F4D1
:1004100080915401909155010196909355018093DC
:1004200054018091540190915501099754F0109214
:1004300055011092540182E090E09093570180930F
:10044000560126960FB6F894DEBF0FBECDBFDF91E2
:10045000CF911F9108958F929F92AF92BF92CF92AA
:10046000DF92EF92FF920F931F93CF93DF93CDB75D
:10047000DEB762970FB6F894DEBF0FBECDBF8C011A
:10048000EDB6FEB6DC0114964D915C9115974F5F69
:100490005F4FEDB7FEB7E41BF50B0FB6F894FEBF48
:1004A0000FBEEDBF8DB79EB701965C0120E030E036
:1004B000BC01C8010E94CD0DF501D8011496CD9064
:1004C000DC90159720E030E060E070E0CB012C1567
:1004D0003D0591F0A1912F5F3F4F4A2F420340010C
:1004E000439F900C1124AA2497FCA094BA2C680D69
:1004F000791D8A1D9B1DEBCF23E630E040E050E0E4
:100500000E94890EAB01BC012AE0CE010D960E942B
:10051000610C88E4A82EB12C89899A89A81AB90A95
:10052000D80114968D919C911597A81AB90A62E288
:1005300071E0CE0107960E94840B812C912CBE01A4
:10054000695F7F4FCE0101968A149B04ACF40E9430
:10055000080C63E171E0CE0101960E94510DBC01CF
:10056000CE0107960E94F10BCE0101960E94160B58
:10057000BFEF8B1A9B0AE3CF0E94080CBE01635F9A
:100580007F4FCE0101960E943E0DBC01CE01079621
:100590000E94F10BCE0101960E94160B66E071E0FD
:1005A000CE0101960E94840BB801CE0101960E94F3
:1005B0003E0D68E071E00E94510DBE01695F7F4F02
:1005C0000E943E0D6AE071E00E94510DBC0183EF74
:1005D00091E00E94AB0ACE0101960E94160B6AE0E0
:1005E00083EF91E00E94B90A83EF91E00E94C20874
:1005F000CE0107960E94160BCE010D960E94160B97
:100600000FB6F894FEBE0FBEEDBE62960FB6F8941C
:10061000DEBF0FBECDBFDF91CF911F910F91FF9035
:10062000EF90DF90CF90BF90AF909F908F90089504
:10063000EF92FF920F931F93CF93DF93CDB7DEB767
:10064000E6970FB6F894DEBF0FBECDBF8C0122E057
:1006500030E040E050E0BC01CE01C1960E94170E90
:1006600025E030E042E050E0B801CE018B960E94D8
:10067000170E25E430E045E050E0B801CE01859644
:100680000E94170E62E271E0CE014F960E94840B29
:1006900062E271E0CE0149960E94840B62E271E051
:1006A000CE0143960E94840B21E030E040E050E010
:1006B000BE016F5C7F4FCE0101960E94170E6CE069
:1006C00071E0CE0101960E94AE0D182FCE01019669
:1006D0000E94160B112321F16EE071E0CE01C1964C
:1006E0000E94AE0D882381F061E171E0CE018B960E
:1006F0000E94AE0D882341F0CE0185960E945C0ECB
:10070000709357016093560165E171E0CE01C19687
:100710000E94AE0D68E171E0CE01C1960E94AE0D5F
:1007200021E030E040E050E0BE016F5C7F4FCE0141
:1007300007960E94170E6CE071E0CE0107960E94AA
:10074000AE0D81111AC021E030E040E050E0BE0162
:100750006F5C7F4FCE0101960E94170E69E171E038
:10076000CE0101960E94AE0D11E0811101C010E092
:10077000CE0101960E94160B01C011E0CE01079632
:100780000E94160B112309F47FC122E030E041E002
:1007900050E0BE016F5C7F4FCE0101960E94170EA4
:1007A0006FE071E0CE0101960E94AE0D182FCE01D0
:1007B00001960E94160B112309F446C061E171E015
:1007C000CE018B960E94AE0D8823F1F16091560107
:1007D000709157014AE0CE0101960E94350CBE018E
:1007E0006F5F7F4FCE0149960E94110CCE0101969A
:1007F0000E94160B00E010E032E0E32EF12C8D8D0C
:100800009E8D9701281B390B0217130748F463E1EB
:1008100071E0CE0143960E941B0D0F5F1F4FEFCF7B
:10082000BE016D5E7F4FCE014F960E94140DBE013A
:10083000675E7F4FCE014F960E94140D62E271E019
:10084000CE0143960E941D0C22E030E041E050E0D2
:10085000BE016F5C7F4FCE0101960E94170E66E1CC
:1008600071E0CE0101960E94AE0D182FCE010196C7
:100870000E94160B112309F463C022E04FE155E8F2
:100880006BEC7FE3CE0101960E948E0C22E047EDD7
:1008900053EA60E97FE3CE010D960E948E0C6BE176
:1008A00071E0CE0107960E94840BBE01635F7F4F0B
:1008B000CE0107960E943E0D6FE171E00E94510D3E
:1008C000BE016F5F7F4F0E943E0DBC01CE01499675
:1008D0000E94F10BCE0107960E94160BCE010D96D9
:1008E0000E94160BCE0101960E94160B00E010E04C
:1008F0002EE0E22EF12C8D8D9E8D9701281B390B59
:100900000217130748F461E271E0CE0143960E949A
:100910001B0D0F5F1F4FEFCFBE016D5E7F4FCE01EE
:100920004F960E94140DBE01675E7F4FCE014F9619
:100930000E94140D62E271E0CE0143960E941D0CEC
:1009400022E030E041E050E0BE016F5C7F4FCE011D
:1009500001960E94170E69E171E0CE0101960E9496
:10096000AE0D182FCE0101960E94160B112309F42B
:100970003FC0CE018B960E945C0E68E471E0CE0110
:1009800001960E94080CBE016F5F7F4FCE01499611
:100990000E94110CCE0101960E94160B00E010E09F
:1009A00090E4E92EF12C8D8D9E8D9701281B390B3B
:1009B0000217130748F461E271E0CE0143960E94EA
:1009C0001B0D0F5F1F4FEFCFBE016D5E7F4FCE013E
:1009D0004F960E94140DBE01675E7F4FCE014F9669
:1009E0000E94140D62E271E0CE0143960E941D0C3C
:1009F00000E410E08BA19CA1081B190BE12CF12C49
:100A0000E016F10654F461E271E0CE014F960E94C7
:100A10001B0D3FEFE31AF30AF3CF22E030E041E091
:100A200050E0BE016F5C7F4FCE010D960E94170E05
:100A300069E171E0CE0107960E94840BBE01635FFD
:100A40007F4FCE0107960E943E0DBE01655D7F4F30
:100A50000E943E0DBE01615E7F4F0E943E0DBC01B3
:100A6000CE0101960E94080CCE0101960E942B0235
:100A7000CE0101960E94160BCE0107960E94160B1E
:100A8000CE010D960E94160BCE0143960E94160BC6
:100A9000CE0149960E94160BCE014F960E94160B6E
:100AA000CE0185960E94160BCE018B960E94160BE6
:100AB000CE01C1960E94160BE6960FB6F894DEBFE3
:100AC0000FBECDBFDF91CF911F910F91FF90EF909F
:100AD00008954F925F926F927F92AF92BF92CF92A2
:100AE000DF92EF92FF920F931F93CF93DF93CDB7D7
:100AF000DEB762970FB6F894DEBF0FBECDBF0DB75D
:100B00001EB783EF91E00E946608181619060CF0D4
:100B1000EBC04AE063EF71E0CE0101960E94EE0A5D
:100B2000BE016F5F7F4F88E591E00E94110CCE01FE
:100B300001960E94160B83EF91E00E94C20821E00B
:100B400030E040E050E068E571E0CE0107960E9499
:100B5000170E66E071E0CE0107960E94AE0D882365
:100B6000E1F020915C0130915D014AE450E068E5DC
:100B700071E0CE0101960E94170E6AE071E0CE018D
:100B800001960E94AE0DFF24F394811101C0F12C57
:100B9000CE0101960E94160B01C0F12CCE010796E2
:100BA0000E94160BFF2009F49FC0ADB6BEB668E0E8
:100BB00071E0CE0101960E94840BBE016F5F7F4FF2
:100BC00088E591E00E94130E9C0141E050E068E549
:100BD00071E0CE010D960E94170ECE0101960E9483
:100BE000160B68E071E0CE0101960E94840BBE01F5
:100BF0006F5F7F4F88E591E00E94130EAC014F5F5D
:100C00005F4F2AE430E068E571E0CE0107960E946C
:100C1000170ECE0101960E94160B49895A894F5F23
:100C20005F4F8DB79EB7841B950B0FB6F8949EBF90
:100C30000FBE8DBF01967C0120E030E0BC01CE01EB
:100C40000D960E94CD0DF70189899A8920E030E048
:100C5000C12CD12C76012817390789F061912F5FBB
:100C60003F4F6203A001639F500D1124662757FD7B
:100C70006095762FC40ED51EE61EF71EECCFCE0172
:100C800007960E945C0E2B013C01C701B60123E6CA
:100C900030E040E050E00E94890E6415750586053D
:100CA000970579F4BE01635F7F4FCE0101960E94E4
:100CB000080CCE0101960E941803CE0101960E94F5
:100CC000160B62E271E088E591E00E941D0CCE01F6
:100CD00007960E94160BCE010D960E94160B0FB6BA
:100CE000F894BEBE0FBEADBE0FB6F8941EBF0FBEC9
:100CF0000DBF62960FB6F894DEBF0FBECDBFDF9179
:100D0000CF911F910F91FF90EF90DF90CF90BF9008
:100D1000AF907F906F905F904F9008950F931F93C7
:100D2000FC01428353836483758306811781208588
:100D30003185040F151F261F371F0287138724874D
:100D400035871F910F9108950F931F93FC01028522
:100D5000138524853585401B510B620B730B77FD82
:100D600002C0808901C080E01F910F9108950F9308
:100D70001F93CF93DF93EC01EE85FF85309709F049
:100D800009950E941F086E837F83888799870A814F
:100D90001B812C813D81060F171F281F391F0A87D1
:100DA0001B872C873D87DF91CF911F910F9108956D
:100DB000FC0187E291E09183808381E0808B7787DB
:100DC00066871682178210861186F28BE18B22834A
:100DD0003383448355832287338744875587089517
:100DE0000F931F93FC0146835783608771870281AD
:100DF000138124813581040F151F261F371F028799
:100E00001387248735871F910F910895FC017787F9
:100E1000668708958F929F92AF92BF92CF92DF9292
:100E2000EF92FF920F931F93CF93DF93EC01EE8528
:100E3000FF85309709F009950E941F086B017C011E
:100E40008E015E012EE1A20EB11C812C912C89A98C
:100E50009AA98815990524F1D80153968D919C91F2
:100E600054970097C1F0BFEF8B1A9B0ADC01ED91FC
:100E7000FC910280F381E02DB701A601099588233A
:100E800051F0F80183899489DC01ED91FC91048093
:100E9000F581E02D09950E5F1F4F0A151B05B9F668
:100EA0000E941F08AB01BC01CE01DF91CF911F91C1
:100EB0000F91FF90EF90DF90CF90BF90AF909F90F9
:100EC0008F900C94F00620E030E0FC01E20FF31F5D
:100ED0000388F489E02D309759F00188F289E02DDC
:100EE000DB0151964D915C915297E417F50719F18A
:100EF0002E5F3F4F2E31310541F7FC0120E030E0FD
:100F000043895489452B79F4F901EE0FFF1FE80F4F
:100F1000F91F748B638BFC0121A932A92F5F3F4F0E
:100F200032AB21AB08C02F5F3F4F32962F303105D7
:100F300039F780E0089581E0089520E030E0FC0179
:100F4000E20FF31F148A138A2E5F3F4F2E313105B3
:100F5000B1F7FC0112AA11AA0895CF92DF92EF9285
:100F6000FF92CF93DF93EC016A017B0120E030E038
:100F7000A90160E070E00E94D80681E391E09983C6
:100F800088831AAA19AACE010E949D07E881F981D7
:100F90000190F081E02DB701A601CE01DF91CF9144
:100FA000FF90EF90DF90CF9009941F920F920FB6B1
:100FB0000F9211242F933F938F939F93AF93BF93DF
:100FC0008091EB019091EC01A091ED01B091EE01C7
:100FD0003091EA0123E0230F2D3720F40196A11D63
:100FE000B11D05C026E8230F0296A11DB11D209357
:100FF000EA018093EB019093EC01A093ED01B09393
:10100000EE018091EF019091F001A091F101B0917A
:10101000F2010196A11DB11D8093EF019093F001A3
:10102000A093F101B093F201BF91AF919F918F9185
:101030003F912F910F900FBE0F901F9018952FB7D3
:10104000F8946091EB017091EC018091ED01909129
:10105000EE012FBF0895789484B5826084BD84B575
:10106000816084BD85B5826085BD85B5816085BDA3
:10107000EEE6F0E0808181608083E1E8F0E01082BC
:10108000808182608083808181608083E0E8F0E0FD
:10109000808181608083E1EBF0E0808184608083E7
:1010A000E0EBF0E0808181608083EAE7F0E080811E
:1010B000846080838081826080838081816080837E
:1010C0008081806880831092C1000895FC01818D29
:1010D000228D90E0805C9F4F821B91098F7399272E
:1010E0000895FC01918D828D981731F0828DE80F63
:1010F000F11D858D90E008958FEF9FEF0895FC011D
:10110000918D828D981761F0828DDF01A80FB11D3E
:101110005D968C91928D9F5F9F73928F90E0089562
:101120008FEF9FEF089583E09AE0892B49F080E0EC
:1011300090E0892B29F00E94030A81110C94000091
:101140000895FC01848DDF01A80FB11DA35ABF4F84
:101150002C91848D90E001968F739927848FA689B6
:10116000B7892C93A089B1898C9180648C93938DDD
:10117000848D981306C00288F389E02D80818F7DCD
:1011800080830895CF93DF93EC01888D8823C9F085
:10119000EA89FB89808185FD05C0A889B9898C9180
:1011A00086FD0FC00FB607FCF5CF808185FFF2CF1B
:1011B000A889B9898C9185FFEDCFCE010E94A10845
:1011C000E7CFDF91CF910895CF92DF92FF920F93F7
:1011D0001F93CF93DF931F92CDB7DEB76C0181E0F1
:1011E000D60158968C9358975B969C915B975C962A
:1011F0008C915C97981307C05096ED91FC91519794
:10120000808185FD2EC0F601038D10E00F5F1F4F1A
:101210000F731127F02EF601848DF81211C00FB64E
:1012200007FCF9CFD6015096ED91FC915197808142
:1012300085FFF1CFC60169830E94A1086981EBCFC8
:10124000838DE80FF11DE35AFF4F6083D6015B9653
:101250000C935B975296ED91FC915397808180623D
:101260000CC0D6015696ED91FC915797608350962D
:10127000ED91FC91519780818064808381E090E0C2
:101280000F90DF91CF911F910F91FF90DF90CF9042
:101290000895BF92CF92DF92EF92FF92CF93DF93A8
:1012A000EC016A017B01B22EE889F98982E0808332
:1012B000411581EE580761057105A1F060E079E004
:1012C0008DE390E0A70196010E94670E215031093D
:1012D000410951095695479537952795211580E184
:1012E000380798F0E889F989108260E874E88EE19F
:1012F00090E0A70196010E94670E21503109410933
:1013000051095695479537952795EC85FD8530838E
:10131000EE85FF852083188EEC89FD89B082EA89ED
:10132000FB89808180618083EA89FB898081886074
:101330008083EA89FB89808180688083EA89FB89D0
:1013400080818F7D8083DF91CF91FF90EF90DF9040
:10135000CF90BF9008951F920F920FB60F92112455
:101360002F938F939F93EF93FF93E0910302F0915C
:1013700004028081E0910902F0910A0282FD12C00C
:10138000908180910C028F5F8F7320910D028217E4
:1013900051F0E0910C02F0E0ED50FE4F958F8093FC
:1013A0000C0201C08081FF91EF919F918F912F914D
:1013B0000F900FBE0F901F9018951F920F920FB6AF
:1013C0000F9211242F933F934F935F936F937F93CB
:1013D0008F939F93AF93BF93EF93FF9383EF91E02E
:1013E0000E94A108FF91EF91BF91AF919F918F91C2
:1013F0007F916F915F914F913F912F910F900FBE11
:101400000F901F90189583EF91E00E94660821E0ED
:10141000892B09F420E0822F08951092F601109292
:10142000F50188EE93E0A0E0B0E08093F70190939F
:10143000F801A093F901B093FA018BE391E0909346
:10144000F4018093F30185EC90E090930002809387
:10145000FF0184EC90E0909302028093010280EC03
:1014600090E0909304028093030281EC90E09093CB
:1014700006028093050282EC90E09093080280932C
:10148000070286EC90E090930A0280930902109282
:101490000C0210920D0210920E0210920F0208958B
:1014A00008950E942B080E94500A0E946901C3E916
:1014B000D8E00E94AB012097E1F30E949308F9CF96
:1014C000CF92DF92EF92FF920F931F93CF93DF9310
:1014D0007C016A01EB0100E010E00C151D0571F0C4
:1014E0006991D701ED91FC910190F081E02DC70148
:1014F0000995892B19F00F5F1F4FEFCFC801DF91BE
:10150000CF911F910F91FF90EF90DF90CF900895B2
:10151000EF92FF920F931F93CF93DF938C017B0188
:10152000C0E0D0E0F701EC0FFD1F6491662359F095
:10153000F801A081B181ED91FC91C8010995892B39
:1015400011F02196EFCFCE01DF91CF911F910F9136
:10155000FF90EF900895DC01ED91FC91DB01149672
:101560004D915C9115976D917C910280F381E02DF6
:101570000994DC01ED91FC910190F081E02D09943A
:101580000F931F93CF93DF93EC010E941F0868878E
:1015900079878A879B87E881F9810680F781E02D2A
:1015A000CE01099597FF15C00E941F08088519856F
:1015B0002A853B85601B710B820B930B0C811D816F
:1015C0002E813F81601771078207930720F38FEF09
:1015D0009FEFDF91CF911F910F910895EF92FF92AE
:1015E0000F931F93CF93DF93EC018B01E42E62E204
:1015F00071E00E94840BC8010E94C00AFF24E7FC2E
:10160000F09497FD0BC08E159F0541F0682FCE0119
:101610000E942B0DC8010E94C00AF3CFCE01DF91BA
:10162000CF911F910F91FF90EF900895FC01808161
:1016300091810C94670FCF93DF93EC01888199819E
:10164000009711F00E94670F198218821D821C8278
:101650001B821A82DF91CF9108950F931F93CF932E
:10166000DF93EC018B016F5F7F4F888199810E942E
:10167000F60F009731F0998388831B830A8381E0FA
:1016800001C080E0DF91CF911F910F910895CF931A
:10169000DF93EC0188819981892B29F08A819B81D4
:1016A0008617970760F4CE010E942D0B882341F026
:1016B0008C819D81892B19F4E881F981108281E068
:1016C000DF91CF910895EF92FF920F931F93CF93E5
:1016D000DF93EC017B018A01BA010E94470B811163
:1016E00004C0CE010E941B0B07C01D830C83B701F1
:1016F000888199810E940911CE01DF91CF911F91BC
:101700000F91FF90EF900895FC01118210821382D7
:101710001282158214826115710559F0FB01019046
:101720000020E9F7AF0141505109461B570B0C94BB
:10173000630B0895EF92FF920F931F93CF93DF9364
:10174000EC017B018A01BA010E94470B811104C0A0
:10175000CE010E941B0B07C01D830C83B70188813B
:1017600099810E94E710CE01DF91CF911F910F91D7
:10177000FF90EF9008950F931F93CF93DF938C0109
:10178000EB01FC0180819181009799F042815381A6
:101790002C813D814217530750F0688179810E9466
:1017A00009118C819D81F8019583848313C00E9467
:1017B000670F88819981F801918380838A819B8159
:1017C000938382838C819D8195838483198218827F
:1017D0001B821A821D821C82DF91CF911F910F9173
:1017E0000895CF93DF93EC01FB018617970761F013
:1017F000608171816115710529F0448155810E94D4
:10180000630B02C00E941B0BCE01DF91CF910895A4
:10181000FC011182108213821282158214820C94B0
:10182000F10BCF93DF93EC018617970711F00E941D
:10183000BB0BCE01DF91CF910895CF93DF93EC01E5
:101840006115710561F0FB0101900020E9F7AF011E
:1018500041505109461B570B0E94630B02C00E9466
:101860001B0BCE01DF91CF9108950F931F93CF9360
:10187000DF93CDB7DEB762970FB6F894DEBF0FBE29
:10188000CDBF8C01CB01F80111821082138212822C
:101890001582148250E0BE016F5F7F4F0E943911A4
:1018A000BE016F5F7F4FC8010E941D0C62960FB68C
:1018B000F894DEBF0FBECDBFDF91CF911F910F9186
:1018C00008950F931F93CF93DF93CDB7DEB7A29701
:1018D0000FB6F894DEBF0FBECDBF8C01CB01BA01AD
:1018E000F80111821082138212821582148230E074
:1018F000AE014F5F5F4F0E944F11BE016F5F7F4F80
:10190000C8010E941D0CA2960FB6F894DEBF0FBE50
:10191000CDBFDF91CF911F910F910895EF92FF926C
:101920000F931F93CF93DF93CDB7DEB7A1970FB679
:10193000F894DEBF0FBECDBF7C01CB01BA01F70129
:1019400011821082138212821582148242E0420FA9
:101950008E010F5F1F4F0E94AE0EBC01C7010E9497
:101960001D0CA1960FB6F894DEBF0FBECDBFDF9160
:10197000CF911F910F91FF90EF9008950F931F93B8
:10198000CF93DF9300D0CDB7DEB78C016115710521
:1019900061F0CB0169837A830E94EE10AC0169810A
:1019A0007A81C8010E949A0B02C00E941B0BC801D9
:1019B0000F900F90DF91CF911F910F910895FC012F
:1019C0001182108213821282158214820C94BE0C32
:1019D000EF92FF920F931F93CF93DF93EC017B0164
:1019E0000C811D816115710511F480E016C041154F
:1019F000510591F0040F151FB8010E94470B882371
:101A0000A1F3288139818C819D81B701820F931FB9
:101A10000E9409111D830C8381E0DF91CF911F91FA
:101A20000F91FF90EF900895FB01448155816081F3
:101A300071810C94E80C6115710559F0FB0101905E
:101A40000020E9F7AF0141505109461B570B0C9498
:101A5000E80C80E00895CF93DF9300D0CDB7DEB7D8
:101A600069831A8241E050E0BE016F5F7F4F0E94A0
:101A7000E80C0F900F90DF91CF910895CF93DF93F3
:101A8000EC01FB0144815581608171810E94E80C69
:101A9000811103C0CE010E941B0BCE01DF91CF91BB
:101AA0000895CF93DF93EC016115710569F0FB0197
:101AB00001900020E9F7AF0141505109461B570B37
:101AC0000E94E80C811103C0CE010E941B0BCE01C5
:101AD000DF91CF910895CF93DF93DC01ED91FC91DD
:101AE000EB01A881B981309711F01097C9F41097D4
:101AF00059F0EB012C813D81232B31F08C9190E04A
:101B000091958195910914C0309781F0DC0114966C
:101B10008D919C911597892B49F0808190E008C0A8
:101B2000BD01CF01DF91CF910C94001180E090E0D6
:101B3000DF91CF910895FC0144815581FB012481FF
:101B400035814217530741F40E946B0D21E0892B28
:101B500009F020E0822F089580E00895FC0124819F
:101B60003581232B31F421E061157105A1F0FB01D2
:101B700008C0FC01808191816115710531F421E07B
:101B8000FC018081882339F005C00E94001121E00A
:101B9000892B09F020E0822F08950F931F93CF9394
:101BA000DF93EB0141155105E9F02097D9F0FC01D5
:101BB0006481758126173707A0F4621B730B8A01B5
:101BC000015011096017710708F48B01FC01608155
:101BD0007181620F731FA801CE010E941011C00F06
:101BE000D11F1882DF91CF911F910F910895CF934C
:101BF000DF93FC01848195814817590778F4C081EF
:101C0000D181FB0160817181CE01840F951F0E94FB
:101C10001F11009719F08C1B9D0B02C08FEF9FEFD7
:101C2000DF91CF91089540E050E00C94F70DBF9202
:101C3000CF92DF92EF92FF920F931F93CF93DF9398
:101C40006C017B01EA0189012417350720F48D2FEF
:101C5000E901042F182F62E271E0C6010E94840B93
:101C6000D70114968D919C911597C817D907C8F480
:101C70008017910708F48C01D701ED91FC91119721
:101C8000E00FF11FB08010826D917C916C0F7D1F71
:101C9000C6010E941D0CD701ED91FC91E00FF11FD0
:101CA000B082C601DF91CF911F910F91FF90EF900D
:101CB000DF90CF90BF900895FC01808191810097C3
:101CC00011F00C94C01060E070E0CB010895A1E227
:101CD0001A2EAA1BBB1BFD010DC0AA1FBB1FEE1FA6
:101CE000FF1FA217B307E407F50720F0A21BB30BF1
:101CF000E40BF50B661F771F881F991F1A9469F76D
:101D000060957095809590959B01AC01BD01CF01C8
:101D10000895052E97FB1EF400940E94A00E57FD17
:101D200007D00E94670E07FC03D04EF40C94A00E5F
:101D300050954095309521953F4F4F4F5F4F0895F7
:101D400090958095709561957F4F8F4F9F4F089527
:101D5000EE0FFF1F0590F491E02D0994EF920F9381
:101D60001F93CF93DF93E80147FF02C034E101C026
:101D700034E0E42FFF27E7FDF095F7FF03C0F1956E
:101D8000E195F109E32E022F2E2FAE010E94BA1128
:101D9000CE01DF91CF911F910F91EF900895CF93D6
:101DA000DF938230910510F482E090E0E09192029E
:101DB000F091930220E030E0A0E0B0E0309739F1FC
:101DC0004081518148175907B8F04817590771F4F5
:101DD00082819381109729F013969C938E9312978A
:101DE0002CC0909393028093920227C02115310555
:101DF00031F04217530718F0A901DB0101C0EF01D0
:101E00009A01BD01DF010280F381E02DD7CF2115BA
:101E10003105F9F0281B390B2430310580F48A8113
:101E20009B816115710521F0FB019383828304C0BE
:101E30009093930280939202FE01329644C0FE0179
:101E4000E20FF31F81939193225031093983288344
:101E50003AC02091900230919102232B41F42091BD
:101E6000020130910301309391022093900220915E
:101E70000001309101012115310541F42DB73EB724
:101E80004091040150910501241B350BE091900213
:101E9000F0919102E217F307A0F42E1B3F0B2817D5
:101EA000390778F0AC014E5F5F4F2417350748F0D3
:101EB0004E0F5F1F50939102409390028193919334
:101EC00002C0E0E0F0E0CF01DF91CF910895CF9321
:101ED000DF93009709F487C0FC01329713821282C6
:101EE000C0919202D0919302209781F42081318198
:101EF000280F391F809190029091910282179307C9
:101F000079F5F0939102E09390026DC0DE0120E03C
:101F100030E0AE17BF0750F412964D915C911397C5
:101F20009D014115510509F1DA01F3CFB383A28375
:101F300040815181840F951F8A179B0771F48D9101
:101F40009C911197840F951F02969183808312961E
:101F50008D919C911397938382832115310529F4E8
:101F6000F0939302E09392023EC0D9011396FC9342
:101F7000EE9312974D915D91A40FB51FEA17FB07E1
:101F800079F480819181840F951F0296D901119671
:101F90009C938E938281938113969C938E93129738
:101FA000E0E0F0E08A819B81009719F0FE01EC01EE
:101FB000F9CFCE01029628813981820F931F20919B
:101FC0009002309191022817390769F4309729F46B
:101FD000109293021092920202C013821282D09346
:101FE0009102C0939002DF91CF910895A0E0B0E0FC
:101FF000ECEFFFE00C942414EC01CB01209719F4D2
:102000000E94CF0EB8C0FE01E60FF71F9E012250BE
:102010003109E217F30708F4ACC0D9010D911C9106
:10202000119706171707B8F00530110508F49FC07F
:10203000A801445051094617570708F498C00250A8
:102040001109061B170B019311936D937C93CF011C
:102050000E94670F8CC05B01A01AB10A4E01800E6E
:10206000911EA0919202B0919302612C712C60E0BC
:1020700070E0109709F449C0A815B905C9F5ED90AD
:10208000FC901197670142E0C40ED11CCA14DB0416
:1020900078F147018A189B08640142E0C40ED11C04
:1020A0001296BC9012971396AC91B5E0CB16D10462
:1020B00040F0B282A38391828082D9018D939C9358
:1020C00009C00E5F1F4F0E0D1F1DF9011183008304
:1020D000EB2DFA2F6115710531F0DB011396FC939E
:1020E000EE93129744C0F0939302E09392023FC0A4
:1020F0006D917C9111976616770608F43B01BD013E
:1021000012960D90BC91A02DB4CF60919002709169
:10211000910268157905E9F468167906D0F44091C2
:102120000001509101014115510541F44DB75EB7D1
:102130006091040170910501461B570BE417F507E8
:10214000C0F4F0939102E0939002F90191838083AF
:102150000EC00E94CF0E7C01009759F0A801BE016D
:102160000E94F710CE010E94670FC70104C0CE0184
:1021700002C080E090E0CDB7DEB7EEE00C944014F2
:102180001F93FC0199278827BC01E8941191103214
:10219000E9F3193010F01E30C8F31B3251F01D3234
:1021A00049F4689406C00E946911610F711D811D78
:1021B000911D119110531A30B0F33EF49095809513
:1021C000709561957F4F8F4F9F4F1F910895FB0131
:1021D000DC0105900D920020E1F70895FC010590C7
:1021E0000020E9F7809590958E0F9F1F0895FB01C1
:1021F000DC0102C001900D9241505040D8F7089583
:10220000FB01DC018D91019080190110D9F3990B2C
:102210000895FB01DC0101900D920020E1F7089583
:10222000FB01DC014150504048F001900D9200202C
:10223000C9F701C01D9241505040E0F70895FB01DD
:1022400051915523A9F0BF01DC014D914517411172
:10225000E1F759F4CD010190002049F04D9140156E
:102260004111C9F3FB014111EFCF81E090E00197EB
:1022700008954532510520F4423010F00C94441179
:10228000FB011082CB010895BB274A3031F499231A
:1022900022F4BDE2909581959F4F0C94A1112532B7
:1022A000310520F4223010F00C945A11FA011082FA
:1022B000CA010895BB272A3051F4992342F4BDE2A4
:1022C00090958095709561957F4F8F4F9F4F0C949F
:1022D0007F11592F482F372F262F660F771F881F02
:1022E000991F660F771F881F991F620F731F841F26
:1022F000951F660F771F881F991F0895BB27FA0146
:10230000A62F6217710581059105330B30FB66F02E
:10231000AA27660F771F881F991FAA1FA21710F000
:10232000A21B63953850A9F7A05DAA3308F0A95DF8
:10233000A19336F7B111B1931082CA010C94101415
:10234000BB27FB015527AA27880F991FAA1FA4178F
:1023500010F0A41B83955051B9F7A05DAA3308F083
:10236000A95DA193009779F7B111B1931192CB01B7
:102370000C9410146F927F929F92AF92BF92CF9263
:10238000DF92EF92FF920F931F93CF93DF93CDB71E
:10239000DEB729970FB6F894DEBF0FBECDBF6A0136
:1023A000B22E102F0C3320F4FF24F394F00E02C051
:1023B0004CE3F42E0F2D27E0AE014F5F5F4F0E94DC
:1023C00038137981272F2970213031F0E1FC06C0C4
:1023D000E0FC06C060E005C06DE203C06BE201C036
:1023E00060E2AE2DA07173FF36C0662311F084E069
:1023F00001C083E08B1510F4B81A01C0B12CA111F3
:102400000BC0F6018B2D90E2882319F09193815037
:10241000FBCFCB0CD11CB12C662331F0F6016083CD
:1024200096012F5F3F4F6901C6010396E2FE05C08A
:102430002EE4F601208331E404C02EE6F601208369
:1024400031E631832283FC012B2D30E22223F1F18E
:1024500031932150FBCF72FF40C0662311F084E01E
:1024600001C083E08B1510F4B81A01C0B12CA11182
:102470000BC0F6018B2D90E2882319F091938150C7
:10248000FBCFCB0CD11CB12C662331F0F60160835D
:1024900096012F5F3F4F6901C6010396E2FE07C018
:1024A00029E4F60120832EE4218326E406C029E6F0
:1024B000F60120832EE6218326E62283FC012B2DC4
:1024C00030E2222319F031932150FBCFFC01EB0DB8
:1024D000F11D10828EEF9FEFB7C0B1E0611101C016
:1024E000B0E04B2F50E01816190624F49C012F5F22
:1024F0003F4F02C021E030E0240F351F112329F0A7
:10250000412F50E04F5F5F4F02C040E050E0420F6C
:10251000531F2B2D30E04217530714F4B41A01C097
:10252000B12C2E2D287159F4F6012B2D30E22223E7
:1025300019F031932150FBCFCB0CD11CB12CBB2314
:1025400031F0F601608396012F5F3F4F6901A111C1
:102550000BC0F6012B2D30E3222319F031932150CB
:10256000FBCFCB0CD11CB12CF80E0A81372F307168
:10257000A32E74FF03C0013309F4FA941F142CF442
:102580002F2D293018F028E001C021E0682F392FC5
:1025900097FF02C060E030E0462F532F612C712C72
:1025A0003EE2932EBC01621B71099B01DC01A41B5E
:1025B000B50BE1E0F0E0EC0FFD1FAE0FBF1FE12E09
:1025C000F12CF194E194F1084F3FFFEF5F0731F4F4
:1025D000F6019082B6016F5F7F4F6B0184179507FC
:1025E0004CF02417350734F4BD01660D771DFB014F
:1025F000118101C010E341505109FFEF6F1A7F0AAA
:10260000B6016F5F7F4F4E155F0524F0F601108312
:102610006B01DACF4817590739F4063320F4053334
:1026200019F4A11001C011E3F6011083FB018B2DF9
:1026300090E2882319F091938150FBCFFB01EB0DC1
:10264000F11D108280E090E029960FB6F894DEBF6D
:102650000FBECDBFDF91CF911F910F91FF90EF90F3
:10266000DF90CF90BF90AF909F907F906F90089534
:10267000283008F027E03327DA01990F311D87FD54
:10268000916000966105710539F432602E5F3D93CB
:1026900030E32A95E1F708959F3F30F080387105C7
:1026A000610509F03C5F3C5F3D93913008F0806824
:1026B000911DDF93CF931F930F93FF92EF92192FEA
:1026C000987F9695E92F96959695E90FFF27E95AF9
:1026D000FE4F99273327EE24FF24A701E701059039
:1026E0000894079428F4360FE71EF81E491F511D61
:1026F000660F771F881F991F0694A1F7059007940E
:1027000028F4E70EF81E491F561FC11D770F881FBA
:10271000991F661F0694A1F70590079428F4F80EF8
:10272000491F561FC71FD11D880F991F661F771F8E
:102730000694A1F70590079420F4490F561FC71F70
:10274000D81F990F661F771F881F0694A9F78491D9
:102750001095177041F0D695C79557954795F79402
:10276000E7941A95C1F7EDEFF0E068941590159194
:1027700035916591959105907FE27395E118F10A85
:10278000430B560BC90BD009C0F7E10CF11E431FD8
:10279000561FC91FD01D7EF4703311F48A95E6CF01
:1027A000E894015030F0080F0AF40027021708F4EB
:1027B000202F2395022F7A3328F079E37D932A95F1
:1027C000E9F710C07D932A9589F606949795679549
:1027D000379517951794E118F10A430B560BC90B5F
:1027E000D00998F023957E9173957A3308F070E3C1
:1027F0007C932013B8F77E9170617D9330F08395C0
:1028000071E37D9370E32A95E1F71124EF90FF9037
:102810000F911F91CF91DF91992787FD9095089592
:10282000DC01FC01672F71917723E1F7329704C037
:102830007C916D9370836291AE17BF07C8F30895C2
:102840002F923F924F925F926F927F928F929F92C0
:10285000AF92BF92CF92DF92EF92FF920F931F93AE
:10286000CF93DF93CDB7DEB7CA1BDB0B0FB6F8945F
:10287000DEBF0FBECDBF09942A88398848885F849F
:102880006E847D848C849B84AA84B984C884DF8010
:10289000EE80FD800C811B81AA81B981CE0FD11DF4
:1028A0000FB6F894DEBF0FBECDBFED01089511E065
:1028B000CCEFD1E004C0FE010E94AA0E2296CE3FCA
:0828C000D107C9F7F894FFCF1E
:1028C8000000940280004000250023005700574371
:1028D8000030303000575600575200204820002062
:1028E800462000000000008E06A406B7060000007F
:1028F800008E06A4060A0700000000E408600A66C5
:08290800087F087108C20800F5
:00000001FF
