:100000000C9402010C942A010C942A010C942A01EC
:100010000C942A010C942A010C942A010C942A01B4
:100020000C942A010C942A010C942A010C942A01A4
:100030000C942A010C942A010C942A010C942A0194
:100040000C94D60C0C942A010C94680F0C949A0F03
:100050000C942A010C942A010C942A010C942A0174
:100060000C94620A0C942A014052433030303031F3
:100070002020202020202020202020202020202080
:100080002020202020202020202020202020202070
:100090002020202020202020202020202020202060
:1000A000202020202020202020202020202025303B
:1000B000393223005743303030303100000000081F
:1000C000000201000003040700000000000000001F
:1000D00001020408102040800102040810200102DF
:1000E00004081020040404040404040402020202AC
:1000F000020203030303030300000000250028009D
:100100002B0000407A10F35A00A0724E180900101C
:10011000A5D4E80000E87648170000E40B5402007C
:1001200000CA9A3B000000E1F505000080969800A7
:10013000000040420F000000A086010000001027D0
:1001400000000000E8030000000064000000000060
:100150000A00000000000100000000002C76D88892
:10016000DC674F0823DFC1DFAE59E1B1B796E5E3A5
:10017000E453C63AE651997696E8E6C28426EB89BE
:100180008C9B62ED407C6FFCEFBC9C9F40F2BAA55B
:100190006FA5F490055A2AF75C936B6CF9676DC1F3
:1001A0001BFCE0E40D47FEF520E6B500D0ED902EF7
:1001B0000300943577050080841E080000204E0A55
:1001C000000000C80C333333330F986E1283114193
:1001D000EF8D2114893BE65516CFFEE6DB18D1845E
:1001E0004B381BF77C1D901DA4BBE4242032847285
:1001F0005E228100C9F124ECA1E53D273301780995
:10020000CA0F590111241FBECFEFD8E0DEBFCDBF0A
:1002100011E0A0E0B1E0E4E4F4E302C005900D9247
:10022000A036B107D9F723E0A0E6B1E001C01D92E6
:10023000A036B207E1F711E0C2E0D2E004C0229795
:10024000FE010E946814CC3FD107C9F70E940E102E
:100250000C94151A0C940000DC01ED91FC910190B6
:10026000F081E02D099440E050E0BA0183EC91E088
:100270000E94AE0C20E030E0A90160E070E080EB6D
:1002800091E00E94D90B40E050E0BA018DE791E087
:100290000E94AE0C20E030E0A90160E070E08AE648
:1002A00091E00E94D90B66E271E084E691E00C9443
:1002B000411184E691E00C94D31086EF91E00E9406
:1002C000E80826E040E052EC61E070E08FEB92E05D
:1002D0000E94060F68EC70E084E691E00E94041131
:1002E00060EB71E083EC91E00E94640C64EA71E0E1
:1002F00080EB91E00E94070C48EC50E060E070E079
:1003000080EB91E00E948F0B6AE671E08DE791E04F
:100310000E94640C6CE277E08AE691E00E94070C90
:1003200040E050E0BA018AE691E00C948F0B809196
:1003300062019091630102971CF483EC91E002C08A
:100340008DE791E00C940B0C1F93CF93DF9300D0BB
:1003500000D000D0CDB7DEB78FEB92E00E94230E25
:1003600018161906DCF54AE06FEB72E0CE01019633
:100370000E94AB10BE016F5F7F4F84E691E00E9448
:10038000CE11CE0101960E94D3108FEB92E00E9415
:100390007F0E64EB70E0CE0101960E949C12BE01BC
:1003A0006F5F7F4F84E691E00E945813182FCE01B3
:1003B00001960E94D310112389F081E090E0909380
:1003C00063018093620168E670E08FEB92E00E9427
:1003D00045106AE08FEB92E00E94761080916201F6
:1003E00090916301019749F48091600190916101BE
:1003F00001969093610180936001809160019091DA
:100400006101099754F0109261011092600182E03D
:1004100090E0909363018093620126960FB6F89462
:10042000DEBF0FBECDBFDF91CF911F9108958F9298
:100430009F92AF92BF92CF92DF92EF92FF920F9373
:100440001F93CF93DF93CDB7DEB762970FB6F894C3
:10045000DEBF0FBECDBF8C01EDB6FEB6DC0114963B
:100460004D915C9115974F5F5F4FEDB7FEB7E41B61
:10047000F50B0FB6F894FEBF0FBEEDBF8DB79EB75C
:1004800001965C0120E030E0BC01C8010E948A13A3
:10049000F501D8011496CD90DC90159720E030E05E
:1004A00060E070E0CB012C153D0591F0A1912F5F2C
:1004B0003F4F4A2F42034001439F900C1124AA242E
:1004C00097FCA094BA2C680D791D8A1D9B1DEBCF5B
:1004D00023E630E040E050E00E944714AB01BC014D
:1004E0002AE0CE010D960E941E1288E4A82EB12C9F
:1004F00089899A89A81AB90AD80114968D919C9174
:100500001597A81AB90A66E271E0CE0107960E9413
:100510004111812C912CBE01695F7F4FCE01019664
:100520008A149B04ACF40E94C51163E171E0CE0112
:1005300001960E940E13BC01CE0107960E94AE11D7
:10054000CE0101960E94D310BFEF8B1A9B0AE3CF16
:100550000E94C511BE01635F7F4FCE0101960E94CC
:10056000FB12BC01CE0107960E94AE11CE0101968E
:100570000E94D31066E071E0CE0101960E94411105
:10058000B801CE0101960E94FB1268E071E00E9462
:100590000E13BE01695F7F4F0E94FB126AE071E09B
:1005A0000E940E13BC018FEB92E00E946810CE01F6
:1005B00001960E94D3106AE08FEB92E00E947610C1
:1005C0008FEB92E00E947F0ECE0107960E94D3101F
:1005D000CE010D960E94D3100FB6F894FEBE0FBE4A
:1005E000EDBE62960FB6F894DEBF0FBECDBFDF91B1
:1005F000CF911F910F91FF90EF90DF90CF90BF9020
:10060000AF909F908F900895CF92DF92EF92FF92DC
:100610000F931F93CF93DF938C01EB017A01690154
:10062000BC0186EF91E00E94FC086D2F70E086EF20
:1006300091E00E942C01BE01772786EF91E00E9495
:100640002C0186EF91E00E947509A601B80186EFA2
:1006500091E00E947209C0E086EF91E00E9451088B
:10066000892B69F011E01C0FC7018C0F911DEC0163
:1006700086EF91E00E9459088883C12FEDCFDF916A
:10068000CF911F910F91FF90EF90DF90CF90089541
:100690004F925F926F927F928F929F92AF92BF9292
:1006A000CF92DF92EF92FF920F931F93CF93DF933E
:1006B000CDB7DEB7A0970FB6F894DEBF0FBECDBFA3
:1006C0007C015B0166E271E00E944111B50161505D
:1006D00071098B01000F111F380182E0680E711C37
:1006E0005B0126E0AA0CBB1C2A95E1F7C12CD12C9A
:1006F0004E0191E2890E911C06151705F4F420E2D3
:1007000030E0AE014F5F5F4FB6016A0D7B1D80E5A3
:1007100090E00E940403FE0131962F01F2016191E5
:100720002F01C7010E94E81248145904B9F70F5F5E
:100730001F4FF0E2CF0ED11CDFCFC701A0960FB63E
:10074000F894DEBF0FBECDBFDF91CF911F910F9107
:10075000FF90EF90DF90CF90BF90AF909F908F90E1
:100760007F906F905F904F9008954F925F926F923D
:100770007F928F929F92AF92BF92CF92DF92EF9231
:10078000FF920F931F93CF93DF935C018B016A015C
:10079000FA013196EF01CC19DD0981918111FACF6F
:1007A0009801207C205C3F4F201B310B213131050B
:1007B00038F0822F8F70682E21F450E1652E01C031
:1007C000622E862D90E08C179D0728F47C2E7618DB
:1007D000272D2F70722E8C179D0748F4C81BD90B3C
:1007E00044E0D695C7954A95E1F7229602C0C1E04C
:1007F000D0E0E12CF12C412C4E0181E0881A9108C7
:10080000B50186EF91E00E94FC08612F70E086EF51
:1008100091E00E942C01B801772786EF91E00E94B9
:100820002C01542CF601E50DF11D608186EF91E05D
:100830000E94A9085394F601E50DF11D80818111F4
:100840001BC086EF91E00E947509060D111D6AE03C
:1008500070E080E090E00E944F0D2FEFE21AF20A64
:10086000EC16FD0670F4E814F90411F4672C02C0CC
:1008700030E1632E452CC4CF852D8419861590F266
:10088000E0CFDF91CF911F910F91FF90EF90DF901C
:10089000CF90BF90AF909F908F907F906F905F9020
:1008A0004F900895EF92FF920F931F93CF93DF9392
:1008B000CDB7DEB7CE57D1090FB6F894DEBF0FBE65
:1008C000CDBF8C0122E030E040E050E0BC01CE0121
:1008D00087589F4F0E94D41325E030E042E050E05B
:1008E000B801CE018D589F4F0E94D41325E430E00B
:1008F00045E050E0B801CE0183599F4F0E94D413C8
:1009000066E271E0CE0189599F4F0E94411166E273
:1009100071E0CE018F599F4F0E94411166E271E054
:10092000CE01855A9F4F0E94411121E030E040E006
:1009300050E0BE0167587F4FCE0101960E94D4134C
:100940006CE071E0CE0101960E946B13182FCE016E
:1009500001960E94D310112309F44CC06EE071E09F
:10096000CE0187589F4F0E946B13882391F061E15D
:1009700071E0CE018D589F4F0E946B13882349F080
:10098000CE0183599F4F0E941914709363016093A5
:10099000620165E171E0CE0187589F4F0E946B13A1
:1009A00068E171E0CE0187589F4F0E946B13882346
:1009B00009F120E030E042E450E0BE016F5F7F4F7C
:1009C000CE0183599F4F0E948A13CE018D589F4FAD
:1009D0000E9419146150710981099109F6E0660FAE
:1009E000771FFA95E1F7AE014F5F5F4F80E590E02A
:1009F0000E94B50321E030E040E050E0BE016758BE
:100A00007F4FCE018D5B9F4F0E94D4136CE071E04D
:100A1000CE018D5B9F4F0E946B1381111AC021E0A4
:100A200030E040E050E0BE0167587F4FCE010196B4
:100A30000E94D41369E171E0CE0101960E946B130C
:100A400011E0811101C010E0CE0101960E94D31087
:100A500001C011E0CE018D5B9F4F0E94D310112386
:100A600009F4CEC122E030E041E050E0BE01675819
:100A70007F4FCE0101960E94D4136FE071E0CE014A
:100A800001960E946B13182FCE0101960E94D3107D
:100A9000112309F44FC061E171E0CE018D589F4FE1
:100AA0000E946B13882309F445C060916201709124
:100AB00063014AE0CE0101960E94F211BE016F5F10
:100AC0007F4FCE018F599F4F0E94CE11CE010196CC
:100AD0000E94D31000E010E0E2E0EE2EF12CA79689
:100AE0008EAD9FADA7979701281B390B02171307EF
:100AF00050F463E171E0CE01855A9F4F0E94D812F5
:100B00000F5F1F4FECCFBE01655A7F4FCE01895951
:100B10009F4F0E94D112BE016F597F4FCE0189595C
:100B20009F4F0E94D11266E271E0CE01855A9F4F1D
:100B30000E94DA1122E030E041E050E0BE01675847
:100B40007F4FCE0101960E94D41366E171E0CE0181
:100B500001960E946B13182FCE0101960E94D310AC
:100B6000112309F49BC04AE06CEE73E0CE010196BC
:100B70000E94F21122E04FE155E86BEC7FE3CE01D9
:100B80008D5B9F4F0E944B1222E047ED53EA60E9D4
:100B90007FE3CE01875B9F4F0E944B124AE064EFD8
:100BA00071E0CE018B5A9F4F0E94F2116BE171E010
:100BB000CE01815B9F4F0E944111BE016B5A7F4F56
:100BC000CE01815B9F4F0E94FB126FE171E00E949A
:100BD0000E13BE01675B7F4F0E94FB1263E271E060
:100BE0000E940E13BE016D5B7F4F0E94FB1267E2F5
:100BF00071E00E940E13BE016F5F7F4F0E94FB12D7
:100C0000BC01CE018F599F4F0E94AE11CE01815B76
:100C10009F4F0E94D310CE018B5A9F4F0E94D3103A
:100C2000CE01875B9F4F0E94D310CE018D5B9F4FFB
:100C30000E94D310CE0101960E94D31000E010E074
:100C40007BE1E72EF12CA7968EAD9FADA79797017C
:100C5000281B390B0217130750F465E271E0CE012F
:100C6000855A9F4F0E94D8120F5F1F4FECCFBE01D5
:100C7000655A7F4FCE0189599F4F0E94D112BE0104
:100C80006F597F4FCE0189599F4F0E94D11266E262
:100C900071E0CE01855A9F4F0E94DA1122E030E0C8
:100CA00041E050E0BE0167587F4FCE0101960E949F
:100CB000D41369E171E0CE0101960E946B13182FE5
:100CC000CE0101960E94D310112309F445C0CE0134
:100CD0008D589F4F0E941914CE0101960E9448031F
:100CE000BE016F5F7F4FCE018F599F4F0E94CE1183
:100CF000CE0101960E94D31000E010E060E4E62EE1
:100D0000F12CA7968EAD9FADA7979701281B390BA5
:100D10000217130750F465E271E0CE01855A9F4F28
:100D20000E94D8120F5F1F4FECCFBE01655A7F4F54
:100D3000CE0189599F4F0E94D112BE016F597F4F3A
:100D4000CE0189599F4F0E94D11266E271E0CE0117
:100D5000855A9F4F0E94DA1100E410E0AD968EADE7
:100D60009FADAD97081B190BE12CF12CE016F10695
:100D70005CF465E271E0CE0189599F4F0E94D81260
:100D80003FEFE31AF30AF2CF22E030E041E050E017
:100D9000BE0167587F4FCE01875B9F4F0E94D413DF
:100DA00069E171E0CE018D5B9F4F0E944111BE0150
:100DB000675B7F4FCE018D5B9F4F0E94FB12BE0190
:100DC0006D587F4F0E94FB12BE0169597F4F0E94F0
:100DD000FB12BC01CE0101960E94C511CE01019605
:100DE0000E941702CE0101960E94D310CE018D5BA6
:100DF0009F4F0E94D310CE01875B9F4F0E94D3105C
:100E0000CE01855A9F4F0E94D310CE018F599F4F1C
:100E10000E94D310CE0189599F4F0E94D310CE015A
:100E200083599F4F0E94D310CE018D589F4F0E942F
:100E3000D310CE0187589F4F0E94D310C258DF4F66
:100E40000FB6F894DEBF0FBECDBFDF91CF911F91DB
:100E50000F91FF90EF9008954F925F926F927F9263
:100E6000AF92BF92CF92DF92EF92FF920F931F93B8
:100E7000CF93DF93CDB7DEB762970FB6F894DEBF9E
:100E80000FBECDBF0DB71EB78FEB92E00E94230EB1
:100E9000181619060CF0EBC04AE06FEB72E0CE01B9
:100EA00001960E94AB10BE016F5F7F4F84E691E018
:100EB0000E94CE11CE0101960E94D3108FEB92E0DA
:100EC0000E947F0E21E030E040E050E064E671E0F7
:100ED000CE0107960E94D41366E071E0CE0107961A
:100EE0000E946B138823E1F0209168013091690121
:100EF0004AE450E064E671E0CE0101960E94D4130A
:100F00006AE071E0CE0101960E946B13FF24F39416
:100F1000811101C0F12CCE0101960E94D31001C0B5
:100F2000F12CCE0107960E94D310FF2009F49FC038
:100F3000ADB6BEB668E071E0CE0101960E944111E7
:100F4000BE016F5F7F4F84E691E00E94D0139C0149
:100F500041E050E064E671E0CE010D960E94D413AA
:100F6000CE0101960E94D31068E071E0CE01019697
:100F70000E944111BE016F5F7F4F84E691E00E94A5
:100F8000D013AC014F5F5F4F2AE430E064E671E0BC
:100F9000CE0107960E94D413CE0101960E94D31071
:100FA00049895A894F5F5F4F8DB79EB7841B950B58
:100FB0000FB6F8949EBF0FBE8DBF01967C0120E056
:100FC00030E0BC01CE010D960E948A13F701898999
:100FD0009A8920E030E0C12CD12C760128173907FE
:100FE00089F061912F5F3F4F6203A001639F500D15
:100FF0001124662757FD6095762FC40ED51EE61E78
:10100000F71EECCFCE0107960E9419142B013C016C
:10101000C701B60123E630E040E050E00E944714EB
:10102000641575058605970579F4BE01635F7F4FEA
:10103000CE0101960E94C511CE0101960E94520474
:10104000CE0101960E94D31066E271E084E691E041
:101050000E94DA11CE0107960E94D310CE010D96A0
:101060000E94D3100FB6F894BEBE0FBEADBE0FB631
:10107000F8941EBF0FBE0DBF62960FB6F894DEBF88
:101080000FBECDBFDF91CF911F910F91FF90EF90D9
:10109000DF90CF90BF90AF907F906F905F904F9018
:1010A00008958091260290E020912702821B9109E9
:1010B00008952091270280912602281750F4E22FEC
:1010C000F0E0E85DFD4F808190E02F5F20932702E4
:1010D00008958FEF9FEF0895E091270280912602F7
:1010E000E81730F4F0E0E85DFD4F808190E008956E
:1010F0008FEF9FEF08950895CF92DF92EF92FF92C6
:101100000F931F93CF93DF937C01CB018A01209132
:101110000202222389F0EB016B01C40ED51ECC150F
:10112000DD0569F06991D701ED91FC910190F081A5
:10113000E02DC7010995F3CF642F0E94390AC80139
:10114000DF91CF911F910F91FF90EF90DF90CF90A3
:101150000895CF93DF931F92CDB7DEB769832091B7
:1011600002022223D1F020910302203240F021E03C
:1011700030E0FC013383228380E090E015C0809151
:101180000402E82FF0E0EB5FFD4F998190838F5FC1
:10119000809304028093030205C061E0CE010196B2
:1011A0000E94390A81E090E00F90DF91CF9108957D
:1011B000FC011382128248EE53E060E070E0448349
:1011C0005583668377838FE291E0918380830895CE
:1011D000109227021092260210920402109203022B
:1011E0000C947C0981E080930202609325021092A6
:1011F00004021092030208950C94F2080F93062F34
:1012000021E04091030265E072E0809125020E9496
:10121000E2091092040210920302109202020F914E
:1012200008958F929F92AF92BF92CF92DF92EF92EA
:10123000FF920F931F93CF93DF93EC01F62ED42EE2
:1012400048015901EE2019F10E94F2081E2D1430B8
:1012500008F013E01150B8F0E881F98128E0129FFE
:10126000B0011124A501940104C056954795379506
:1012700027956A95D2F7CA01B9010190F081E02D56
:10128000CE010995E7CF60E0CE010E94FE084D2D0A
:10129000413208F040E22C2D68E272E08F2D0E946E
:1012A0009A091092270280932602DF91CF911F9115
:1012B0000F91FF90EF90DF90CF90BF90AF909F90F5
:1012C0008F900895CF92EF920F931F93C22EE12C2F
:1012D00000E010E098010E9411091F910F91EF901A
:1012E000CF90089521E00C94620961E00C94FE080F
:1012F00086EF91E00C94D8081092B50281E08093BB
:10130000B3021092B20261E082E10E94ED0D61E051
:1013100083E10E94ED0DE9EBF0E080818E7F808318
:1013200080818D7F808388E48093B80085E48093FA
:10133000BC000895413208F043C09091B50291116C
:10134000FCCF91E09093B5022093B3022FEF20934E
:10135000480210928D02240F20938C029093B402C5
:101360009091B402880F892B8093B4028091B202CD
:10137000813061F41092B2028091B4028093BB007C
:101380008091BC0083FDF8CF85EC01C085EE809391
:10139000BC008091B5028130E1F380918D02841709
:1013A00010F440918D022EE832E0FB01D9018A2F22
:1013B000821B841718F48D918193F9CF842F08959F
:1013C00080E008950F93413208F04AC09091B50231
:1013D0009111FCCF92E09093B5020093B3029FEF7E
:1013E0009093480210928D0240938C02FB016EE8AC
:1013F00072E0DB019A2F961B941718F491919D933C
:10140000F9CF1092B4029091B402880F892B809387
:10141000B4028091B202813061F41092B2028091E4
:10142000B4028093BB008091BC0083FDF8CF85ECB3
:1014300001C085EE8093BC00222321F08091B5028B
:101440008230E1F3809148028F3F61F08091480241
:10145000803251F080914802803341F483E007C02C
:1014600081E005C080E003C082E001C084E00F910C
:101470000895613298F42091B502243089F4609384
:101480006A02FC018CE692E0DC012A2F281B261759
:1014900018F421912D93F9CF80E0089581E008950B
:1014A00082E0089585ED8093BC008091BC0084FDAE
:1014B000FCCF1092B502089585EC8093BC00109289
:1014C000B50208951F920F920FB60F9211242F9319
:1014D0003F934F935F936F937F938F939F93AF93BC
:1014E000BF93EF93FF938091B900887F803609F412
:1014F0009EC078F5883209F45DC090F4803109F41B
:1015000056C038F4882309F4F5C0883009F44FC078
:10151000F5C0883109F44EC0803209F45FC0EEC0D6
:10152000803409F46AC058F4803309F457C0883312
:1015300009F0E4C0809348020E945C0ADFC0803555
:1015400009F44FC0883509F45DC0883409F0D6C06D
:10155000D3C0883909F4C4C0A8F4883709F467C037
:1015600038F4883609F463C0803709F460C0C6C017
:10157000883809F4B5C0803909F45FC0803809F0B3
:10158000BDC05BC0803B09F483C038F4803A09F4E5
:1015900066C0883A09F47CC0B1C0803C09F4A4C09C
:1015A000883C09F4A1C0883B09F487C0A7C080919A
:1015B000B40210C090918D0280918C02981770F542
:1015C000E0918D0281E08E0F80938D02F0E0E25772
:1015D000FD4F80818093BB0085EC83C080934802DF
:1015E0008BC0E0918D0281E08E0F80938D028091FF
:1015F000BB00F0E0E257FD4F808390918D02809117
:101600008C026BC0E0918D0281E08E0F80938D0281
:101610008091BB00F0E0E257FD4F80838091B302E0
:1016200081116AC081E08093B20284EA5EC083E0E7
:101630008093B50210924902CFCF80914902803247
:1016400008F04EC0E091490281E08E0F809349027C
:101650008091BB00F0E0E65BFD4F8083BDCF0E9430
:101660005C0A80914902803230F4E0914902F0E056
:10167000E65BFD4F10826091490270E0E091AE029E
:10168000F091AF028AE492E009951092490236C0C7
:1016900084E08093B50210926B0210926A02E0918E
:1016A000B002F091B102099580916A02811105C0E2
:1016B00081E080936A0210926C02E0916B0281E0FB
:1016C0008E0F80936B02F0E0E459FD4F8081809390
:1016D000BB0090916B0280916A02981708F47CCF4E
:1016E00085E88093BC000AC085EC8093BC00109212
:1016F000B50204C0109248020E94520AFF91EF9175
:10170000BF91AF919F918F917F916F915F914F9119
:101710003F912F910F900FBE0F901F9018950F9330
:101720001F93FC0142835383648375830681178171
:1017300020853185040F151F261F371F0287138749
:10174000248735871F910F9108950F931F93FC01F4
:101750000285138524853585401B510B620B730B65
:1017600077FD02C0808901C080E01F910F9108952C
:101770000F931F93CF93DF93EC01EE85FF85309796
:1017800009F009950E94200D6E837F8388879987D1
:101790000A811B812C813D81060F171F281F391FCD
:1017A0000A871B872C873D87DF91CF911F910F916F
:1017B0000895FC018FE391E09183808381E0808B29
:1017C000778766871682178210861186F28BE18BE7
:1017D0002283338344835583228733874487558705
:1017E00008950F931F93FC01468357836087718789
:1017F0000281138124813581040F151F261F371F95
:1018000002871387248735871F910F910895FC0164
:101810007787668708958F929F92AF92BF92CF92FB
:10182000DF92EF92FF920F931F93CF93DF93EC0120
:10183000EE85FF85309709F009950E94200D6B0118
:101840007C018E015E012EE1A20EB11C812C912C37
:1018500089A99AA98815990524F1D80153968D91E3
:101860009C9154970097C1F0BFEF8B1A9B0ADC0143
:10187000ED91FC910280F381E02DB701A60109955D
:10188000882351F0F80183899489DC01ED91FC9162
:101890000480F581E02D09950E5F1F4F0A151B0589
:1018A000B9F60E94200DAB01BC01CE01DF91CF91B2
:1018B0001F910F91FF90EF90DF90CF90BF90AF906E
:1018C0009F908F900C94F10B20E030E0FC01E20F30
:1018D000F31F0388F489E02D309759F00188F289CD
:1018E000E02DDB0151964D915C915297E417F5077D
:1018F00019F12E5F3F4F2E31310541F7FC0120E0F9
:1019000030E043895489452B79F4F901EE0FFF1F2C
:10191000E80FF91F748B638BFC0121A932A92F5F9B
:101920003F4F32AB21AB08C02F5F3F4F32962F3075
:10193000310539F780E0089581E0089520E030E036
:10194000FC01E20FF31F148A138A2E5F3F4F2E31E2
:101950003105B1F7FC0112AA11AA0895CF92DF92C6
:10196000EF92FF92CF93DF93EC016A017B0120E0BD
:1019700030E0A90160E070E00E94D90B89E491E0B9
:10198000998388831AAA19AACE010E949E0CE88125
:10199000F9810190F081E02DB701A601CE01DF9120
:1019A000CF91FF90EF90DF90CF9009941F920F920C
:1019B0000FB60F9211242F933F938F939F93AF9362
:1019C000BF938091B7029091B802A091B902B091F3
:1019D000BA023091B60223E0230F2D3720F401968E
:1019E000A11DB11D05C026E8230F0296A11DB11D42
:1019F0002093B6028093B7029093B802A093B902E5
:101A0000B093BA028091BB029091BC02A091BD023A
:101A1000B091BE020196A11DB11D8093BB029093AF
:101A2000BC02A093BD02B093BE02BF91AF919F9143
:101A30008F913F912F910F900FBE0F901F9018958F
:101A40002FB7F8946091B7027091B8028091B902F3
:101A50009091BA022FBF08953FB7F8948091BB02CE
:101A60009091BC02A091BD02B091BE0226B5A89B88
:101A700005C02F3F19F00196A11DB11D3FBF66277C
:101A8000782F892F9A2F620F711D811D911D42E0C1
:101A9000660F771F881F991F4A95D1F708958F9277
:101AA0009F92AF92BF92CF92DF92EF92FF926B0123
:101AB0007C010E942C0D4B015C01C114D104E10496
:101AC000F104F1F00E9424140E942C0D6819790988
:101AD0008A099B09683E73408105910570F321E0F6
:101AE000C21AD108E108F10888EE880E83E0981E3A
:101AF000A11CB11CC114D104E104F10429F7DDCF0C
:101B0000FF90EF90DF90CF90BF90AF909F908F901D
:101B10000895789484B5826084BD84B5816084BD65
:101B200085B5826085BD85B5816085BDEEE6F0E056
:101B3000808181608083E1E8F0E0108280818260B2
:101B40008083808181608083E0E8F0E08081816033
:101B50008083E1EBF0E0808184608083E0EBF0E063
:101B6000808181608083EAE7F0E080818460808307
:101B700080818260808380818160808380818068B1
:101B800080831092C1000895833081F028F4813061
:101B900099F08230A1F008958730A9F08830B9F02B
:101BA0008430D1F4809180008F7D03C080918000CB
:101BB0008F7780938000089584B58F7702C084B5B5
:101BC0008F7D84BD08958091B0008F7703C0809190
:101BD000B0008F7D8093B00008950F931F93CF9333
:101BE000DF931F92CDB7DEB7282F30E0F901E45420
:101BF000FF4F8491F901E053FF4F1491F901EC512B
:101C0000FF4F04910023C9F0882321F069830E94CB
:101C1000C40D6981E02FF0E0EE0FFF1FE850FF4F89
:101C2000A591B4919FB7F8948C91611103C0109560
:101C3000812301C0812B8C939FBF0F90DF91CF91A7
:101C40001F910F910895FC01818D228D90E0805CA1
:101C50009F4F821B91098F7399270895FC01918DE5
:101C6000828D981731F0828DE80FF11D858D90E0FF
:101C700008958FEF9FEF0895FC01918D828D981745
:101C800061F0828DDF01A80FB11D5D968C91928D60
:101C90009F5F9F73928F90E008958FEF9FEF08955D
:101CA00080EC9FE0892B49F080E090E0892B29F0BF
:101CB0000E94C00F81110C9400000895FC01848DD6
:101CC000DF01A80FB11DA35ABF4F2C91848D90E066
:101CD00001968F739927848FA689B7892C93A08941
:101CE000B1898C9180648C93938D848D981306C0F8
:101CF0000288F389E02D80818F7D80830895CF93C2
:101D0000DF93EC01888D8823C9F0EA89FB89808103
:101D100085FD05C0A889B9898C9186FD0FC00FB6D5
:101D200007FCF5CF808185FFF2CFA889B9898C9116
:101D300085FFEDCFCE010E945E0EE7CFDF91CF9100
:101D40000895CF92DF92FF920F931F93CF93DF936B
:101D50001F92CDB7DEB76C0181E0D60158968C9307
:101D600058975B969C915B975C968C915C979813C7
:101D700007C05096ED91FC915197808185FD2EC052
:101D8000F601038D10E00F5F1F4F0F731127F02E28
:101D9000F601848DF81211C00FB607FCF9CFD601F9
:101DA0005096ED91FC915197808185FFF1CFC6014E
:101DB00069830E945E0E6981EBCF838DE80FF11D70
:101DC000E35AFF4F6083D6015B960C935B97529664
:101DD000ED91FC915397808180620CC0D60156969C
:101DE000ED91FC91579760835096ED91FC9151973E
:101DF00080818064808381E090E00F90DF91CF91BB
:101E00001F910F91FF90DF90CF900895BF92CF92D6
:101E1000DF92EF92FF92CF93DF93EC016A017B0197
:101E2000B22EE889F98982E08083411581EE580756
:101E300061057105A1F060E079E08DE390E0A70114
:101E400096010E94251421503109410951095695E6
:101E5000479537952795211580E1380798F0E8894F
:101E6000F989108260E874E88EE190E0A70196019C
:101E70000E94251421503109410951095695479571
:101E800037952795EC85FD853083EE85FF8520838A
:101E9000188EEC89FD89B082EA89FB898081806196
:101EA0008083EA89FB89808188608083EA89FB8955
:101EB000808180688083EA89FB8980818F7D80832F
:101EC000DF91CF91FF90EF90DF90CF90BF9008957A
:101ED0001F920F920FB60F9211242F938F939F93FF
:101EE000EF93FF93E091CF02F091D0028081E091D7
:101EF000D502F091D60282FD12C090818091D80265
:101F00008F5F8F732091D902821751F0E091D80230
:101F1000F0E0E154FD4F958F8093D80201C080819D
:101F2000FF91EF919F918F912F910F900FBE0F9086
:101F30001F9018951F920F920FB60F9211242F9396
:101F40003F934F935F936F937F938F939F93AF9341
:101F5000BF93EF93FF938FEB92E00E945E0EFF9191
:101F6000EF91BF91AF919F918F917F916F915F9111
:101F70004F913F912F910F900FBE0F901F9018958A
:101F80008FEB92E00E94230E21E0892B09F420E0E0
:101F9000822F08951092C2021092C10288EE93E03F
:101FA000A0E0B0E08093C3029093C402A093C50266
:101FB000B093C60283E591E09093C0028093BF0284
:101FC00085EC90E09093CC028093CB0284EC90E07F
:101FD0009093CE028093CD0280EC90E09093D0025B
:101FE0008093CF0281EC90E09093D2028093D10253
:101FF00082EC90E09093D4028093D30286EC90E040
:102000009093D6028093D5021092D8021092D902F2
:102010001092DA021092DB02089508950E94890D51
:102020000E940D100E945D01C0E5DEE00E94970154
:102030002097E1F30E94500EF9CFCF92DF92EF92FA
:10204000FF920F931F93CF93DF937C016A01EB0103
:1020500000E010E00C151D0571F06991D701ED91BC
:10206000FC910190F081E02DC7010995892B19F0B1
:102070000F5F1F4FEFCFC801DF91CF911F910F91DD
:10208000FF90EF90DF90CF900895EF92FF920F9323
:102090001F93CF93DF938C017B01C0E0D0E0F70169
:1020A000EC0FFD1F6491662359F0F801A081B18106
:1020B000ED91FC91C8010995892B11F02196EFCF84
:1020C000CE01DF91CF911F910F91FF90EF90089576
:1020D000DC01ED91FC91DB0114964D915C9115971B
:1020E0006D917C910280F381E02D0994DC01ED91EA
:1020F000FC910190F081E02D09940F931F93CF93F1
:10210000DF93EC010E94200D688779878A879B877F
:10211000E881F9810680F781E02DCE01099597FFCE
:1021200015C00E94200D088519852A853B85601BF6
:10213000710B820B930B0C811D812E813F816017E7
:1021400071078207930720F38FEF9FEFDF91CF9105
:102150001F910F910895EF92FF920F931F93CF93CA
:10216000DF93EC018B01E42E66E271E00E944111E5
:10217000C8010E947D10FF24E7FCF09497FD0BC07E
:102180008E159F0541F0682FCE010E94E812C8010C
:102190000E947D10F3CFCE01DF91CF911F910F915F
:1021A000FF90EF900895FC01808191810C9425159A
:1021B000CF93DF93EC0188819981009711F00E9401
:1021C0002515198218821D821C821B821A82DF91BA
:1021D000CF9108950F931F93CF93DF93EC018B0161
:1021E0006F5F7F4F888199810E94B415009731F00D
:1021F000998388831B830A8381E001C080E0DF919B
:10220000CF911F910F910895CF93DF93EC018881B7
:102210009981892B29F08A819B818617970760F421
:10222000CE010E94EA10882341F08C819D81892B88
:1022300019F4E881F981108281E0DF91CF9108954E
:10224000EF92FF920F931F93CF93DF93EC017B01EB
:102250008A01BA010E940411811104C0CE010E94BA
:10226000D81007C01D830C83B701888199810E9413
:10227000C716CE01DF91CF911F910F91FF90EF9084
:102280000895FC0111821082138212821582148239
:102290006115710559F0FB0101900020E9F7AF01CC
:1022A00041505109461B570B0C9420110895EF9291
:1022B000FF920F931F93CF93DF93EC017B018A0171
:1022C000BA010E940411811104C0CE010E94D810ED
:1022D00007C01D830C83B701888199810E94A516D0
:1022E000CE01DF91CF911F910F91FF90EF90089554
:1022F0000F931F93CF93DF938C01EB01FC0180813F
:102300009181009799F0428153812C813D81421740
:10231000530750F0688179810E94C7168C819D8196
:10232000F8019583848313C00E94251588819981C3
:10233000F801918380838A819B81938382838C813E
:102340009D8195838483198218821B821A821D8243
:102350001C82DF91CF911F910F910895CF93DF934E
:10236000EC01FB018617970761F0608171816115AF
:10237000710529F0448155810E94201102C00E94FC
:10238000D810CE01DF91CF910895FC011182108207
:1023900013821282158214820C94AE11CF93DF93B4
:1023A000EC018617970711F00E947811CE01DF919A
:1023B000CF910895CF93DF93EC016115710561F022
:1023C000FB0101900020E9F7AF0141505109461B84
:1023D000570B0E94201102C00E94D810CE01DF913D
:1023E000CF9108950F931F93CF93DF93CDB7DEB7AF
:1023F00062970FB6F894DEBF0FBECDBF8C01CB0144
:10240000F80111821082138212821582148250E028
:10241000BE016F5F7F4F0E94F716BE016F5F7F4F57
:10242000C8010E94DA1162960FB6F894DEBF0FBEA3
:10243000CDBFDF91CF911F910F9108950F931F93FF
:10244000CF93DF93CDB7DEB7A2970FB6F894DEBF78
:102450000FBECDBF8C01CB01BA01F80111821082F1
:10246000138212821582148230E0AE014F5F5F4FFB
:102470000E940D17BE016F5F7F4FC8010E94DA11E5
:10248000A2960FB6F894DEBF0FBECDBFDF91CF91FD
:102490001F910F910895EF92FF920F931F93CF9387
:1024A000DF93CDB7DEB7A1970FB6F894DEBF0FBEAE
:1024B000CDBF7C01CB01BA01F701118210821382DA
:1024C00012821582148242E0420F8E010F5F1F4F6D
:1024D0000E946C14BC01C7010E94DA11A1960FB6CC
:1024E000F894DEBF0FBECDBFDF91CF911F910F914A
:1024F000FF90EF9008950F931F93CF93DF9300D039
:10250000CDB7DEB78C016115710561F0CB01698330
:102510007A830E94AC16AC0169817A81C8010E945D
:10252000571102C00E94D810C8010F900F90DF9180
:10253000CF911F910F910895FC0111821082138297
:102540001282158214820C947B12EF92FF920F93E9
:102550001F93CF93DF93EC017B010C811D816115EB
:10256000710511F480E016C04115510591F0040F7A
:10257000151FB8010E9404118823A1F32881398115
:102580008C819D81B701820F931F0E94C7161D8306
:102590000C8381E0DF91CF911F910F91FF90EF901D
:1025A0000895FB0144815581608171810C94A512CD
:1025B0006115710559F0FB0101900020E9F7AF01A9
:1025C00041505109461B570B0C94A51280E0089509
:1025D000CF93DF9300D0CDB7DEB769831A8241E095
:1025E00050E0BE016F5F7F4F0E94A5120F900F90C9
:1025F000DF91CF910895CF93DF93EC01FB014481EC
:102600005581608171810E94A512811103C0CE01A4
:102610000E94D810CE01DF91CF910895CF93DF9320
:10262000EC016115710569F0FB0101900020E9F7EB
:10263000AF0141505109461B570B0E94A512811151
:1026400003C0CE010E94D810CE01DF91CF91089532
:10265000CF93DF93DC01ED91FC91EB01A881B9816F
:10266000309711F01097C9F4109759F0EB012C81B5
:102670003D81232B31F08C9190E0919581959109CA
:1026800014C0309781F0DC0114968D919C911597C0
:10269000892B49F0808190E008C0BD01CF01DF9116
:1026A000CF910C94BE1680E090E0DF91CF91089519
:1026B000FC0144815581FB01248135814217530778
:1026C00041F40E94281321E0892B09F020E0822F99
:1026D000089580E00895FC0124813581232B31F495
:1026E00021E061157105A1F0FB0108C0FC018081AA
:1026F00091816115710531F421E0FC01808188230D
:1027000039F005C00E94BE1621E0892B09F020E0B7
:10271000822F08950F931F93CF93DF93EB01411501
:102720005105E9F02097D9F0FC01648175812617E5
:102730003707A0F4621B730B8A010150110960175F
:10274000710708F48B01FC0160817181620F731FB6
:10275000A801CE010E94CE16C00FD11F1882DF91B2
:10276000CF911F910F910895CF93DF93FC01848146
:1027700095814817590778F4C081D181FB016081A8
:102780007181CE01840F951F0E94DD16009719F00C
:102790008C1B9D0B02C08FEF9FEFDF91CF910895AF
:1027A00040E050E00C94B413BF92CF92DF92EF92CE
:1027B000FF920F931F93CF93DF936C017B01EA018C
:1027C00089012417350720F48D2FE901042F182FD4
:1027D00066E271E0C6010E944111D70114968D9105
:1027E0009C911597C817D907C8F48017910708F46A
:1027F0008C01D701ED91FC911197E00FF11FB08092
:1028000010826D917C916C0F7D1FC6010E94DA11C0
:10281000D701ED91FC91E00FF11FB082C601DF916D
:10282000CF911F910F91FF90EF90DF90CF90BF90CD
:102830000895FC0180819181009711F00C947E161F
:1028400060E070E0CB0108950895A1E21A2EAA1B62
:10285000BB1BFD010DC0AA1FBB1FEE1FFF1FA21750
:10286000B307E407F50720F0A21BB30BE40BF50B4D
:10287000661F771F881F991F1A9469F760957095D6
:10288000809590959B01AC01BD01CF010895052E67
:1028900097FB1EF400940E945E1457FD07D00E941F
:1028A000251407FC03D04EF40C945E14509540950B
:1028B000309521953F4F4F4F5F4F089590958095EC
:1028C000709561957F4F8F4F9F4F0895EE0FFF1FBB
:1028D0000590F491E02D0994EF920F931F93CF93FD
:1028E000DF93E80147FF02C034E101C034E0E42F88
:1028F000FF27E7FDF095F7FF03C0F195E195F1099A
:10290000E32E022F2E2FAE010E947817CE01DF9109
:10291000CF911F910F91EF900895CF93DF93823065
:10292000910510F482E090E0E0915E03F0915F0386
:1029300020E030E0A0E0B0E0309739F140815181F3
:1029400048175907B8F04817590771F482819381E5
:10295000109729F013969C938E9312972CC0909306
:102960005F0380935E0327C02115310531F04217C4
:10297000530718F0A901DB0101C0EF019A01BD0165
:10298000DF010280F381E02DD7CF21153105F9F069
:10299000281B390B2430310580F48A819B81611515
:1029A000710521F0FB019383828304C090935F0340
:1029B00080935E03FE01329644C0FE01E20FF31FD6
:1029C0008193919322503109398328833AC0209111
:1029D0005C0330915D03232B41F42091020130917F
:1029E000030130935D0320935C032091000130913B
:1029F00001012115310541F42DB73EB74091040185
:102A000050910501241B350BE0915C03F0915D03AF
:102A1000E217F307A0F42E1B3F0B2817390778F0B5
:102A2000AC014E5F5F4F2417350748F04E0F5F1F14
:102A300050935D0340935C038193919302C0E0E067
:102A4000F0E0CF01DF91CF910895CF93DF9300970E
:102A500009F487C0FC01329713821282C0915E0391
:102A6000D0915F03209781F420813181280F391F95
:102A700080915C0390915D038217930779F5F09341
:102A80005D03E0935C036DC0DE0120E030E0AE1733
:102A9000BF0750F412964D915C9113979D0141151B
:102AA000510509F1DA01F3CFB383A283408151814B
:102AB000840F951F8A179B0771F48D919C91119734
:102AC000840F951F02969183808312968D919C911D
:102AD0001397938382832115310529F4F0935F03C3
:102AE000E0935E033EC0D9011396FC93EE931297D8
:102AF0004D915D91A40FB51FEA17FB0779F4808112
:102B00009181840F951F0296D90111969C938E9303
:102B10008281938113969C938E931297E0E0F0E06C
:102B20008A819B81009719F0FE01EC01F9CFCE015B
:102B3000029628813981820F931F20915C03309186
:102B40005D032817390769F4309729F410925F0361
:102B500010925E0302C013821282D0935D03C09371
:102B60005C03DF91CF910895A0E0B0E0EAEBF5E1DE
:102B70000C94E219EC01CB01209719F40E948D14FA
:102B8000B8C0FE01E60FF71F9E0122503109E2177F
:102B9000F30708F4ACC0D9010D911C9111970617E9
:102BA0001707B8F00530110508F49FC0A80144507C
:102BB00051094617570708F498C002501109061B1F
:102BC000170B019311936D937C93CF010E942515F0
:102BD0008CC05B01A01AB10A4E01800E911EA0911B
:102BE0005E03B0915F03612C712C60E070E0109780
:102BF00009F449C0A815B905C9F5ED90FC901197E5
:102C0000670142E0C40ED11CCA14DB0478F147010D
:102C10008A189B08640142E0C40ED11C1296BC9035
:102C200012971396AC91B5E0CB16D10440F0B28266
:102C3000A38391828082D9018D939C9309C00E5FFA
:102C40001F4F0E0D1F1DF90111830083EB2DFA2F6D
:102C50006115710531F0DB011396FC93EE93129729
:102C600044C0F0935F03E0935E033FC06D917C919D
:102C700011976616770608F43B01BD0112960D9078
:102C8000BC91A02DB4CF60915C0370915D03681579
:102C90007905E9F468167906D0F440910001509165
:102CA00001014115510541F44DB75EB76091040132
:102CB00070910501461B570BE417F507C0F4F0931C
:102CC0005D03E0935C03F901918380830EC00E9451
:102CD0008D147C01009759F0A801BE010E94B51621
:102CE000CE010E942515C70104C0CE0102C080E0BC
:102CF00090E0CDB7DEB7EEE00C94FE191F93FC0117
:102D000099278827BC01E89411911032E9F3193012
:102D100010F01E30C8F31B3251F01D3249F4689494
:102D200006C00E942717610F711D811D911D119111
:102D300010531A30B0F33EF49095809570956195DC
:102D40007F4F8F4F9F4F1F910895FB01DC0105902E
:102D50000D920020E1F70895FC0105900020E9F7AD
:102D6000809590958E0F9F1F0895FB01DC0102C096
:102D700001900D9241505040D8F70895FB01DC01BD
:102D80008D91019080190110D9F3990B0895FB01E1
:102D9000DC0101900D920020E1F70895FB01DC01B8
:102DA0004150504048F001900D920020C9F701C0F9
:102DB0001D9241505040E0F70895FB015191552379
:102DC000A9F0BF01DC014D9145174111E1F759F41C
:102DD000CD010190002049F04D9140154111C9F3FA
:102DE000FB014111EFCF81E090E00197089545325A
:102DF000510520F4423010F00C940217FB011082B0
:102E0000CB010895BB274A3031F4992322F4BDE267
:102E1000909581959F4F0C945F172532310520F4D2
:102E2000223010F00C941817FA011082CA0108958C
:102E3000BB272A3051F4992342F4BDE29095809546
:102E4000709561957F4F8F4F9F4F0C943D17592F71
:102E5000482F372F262F660F771F881F991F660F61
:102E6000771F881F991F620F731F841F951F660F9E
:102E7000771F881F991F0895BB27FA01A62F621795
:102E8000710581059105330B30FB66F0AA27660FAB
:102E9000771F881F991FAA1FA21710F0A21B639506
:102EA0003850A9F7A05DAA3308F0A95DA19336F7C1
:102EB000B111B1931082CA010C94CE19BB27FB014A
:102EC0005527AA27880F991FAA1FA41710F0A41B23
:102ED00083955051B9F7A05DAA3308F0A95DA1937D
:102EE000009779F7B111B1931192CB010C94CE19DF
:102EF0006F927F929F92AF92BF92CF92DF92EF92AA
:102F0000FF920F931F93CF93DF93CDB7DEB729972F
:102F10000FB6F894DEBF0FBECDBF6A01B22E102FE0
:102F20000C3320F4FF24F394F00E02C04CE3F42E93
:102F30000F2D27E0AE014F5F5F4F0E94F618798199
:102F4000272F2970213031F0E1FC06C0E0FC06C0DB
:102F500060E005C06DE203C06BE201C060E2AE2D2F
:102F6000A07173FF36C0662311F084E001C083E0D6
:102F70008B1510F4B81A01C0B12CA1110BC0F601C9
:102F80008B2D90E2882319F091938150FBCFCB0CCD
:102F9000D11CB12C662331F0F601608396012F5FBE
:102FA0003F4F6901C6010396E2FE05C02EE4F6011B
:102FB000208331E404C02EE6F601208331E631831C
:102FC0002283FC012B2D30E22223F1F13193215099
:102FD000FBCF72FF40C0662311F084E001C083E0A4
:102FE0008B1510F4B81A01C0B12CA1110BC0F60159
:102FF0008B2D90E2882319F091938150FBCFCB0C5D
:10300000D11CB12C662331F0F601608396012F5F4D
:103010003F4F6901C6010396E2FE07C029E4F601AD
:1030200020832EE4218326E406C029E6F6012083CE
:103030002EE6218326E62283FC012B2D30E222237B
:1030400019F031932150FBCFFC01EB0DF11D1082E3
:103050008EEF9FEFB7C0B1E0611101C0B0E04B2F20
:1030600050E01816190624F49C012F5F3F4F02C050
:1030700021E030E0240F351F112329F0412F50E0CB
:103080004F5F5F4F02C040E050E0420F531F2B2DB7
:1030900030E04217530714F4B41A01C0B12C2E2D9E
:1030A000287159F4F6012B2D30E2222319F03193C7
:1030B0002150FBCFCB0CD11CB12CBB2331F0F6013E
:1030C000608396012F5F3F4F6901A1110BC0F6018C
:1030D0002B2D30E3222319F031932150FBCFCB0C61
:1030E000D11CB12CF80E0A81372F3071A32E74FF3A
:1030F00003C0013309F4FA941F142CF42F2D293046
:1031000018F028E001C021E0682F392F97FF02C096
:1031100060E030E0462F532F612C712C3EE2932E5D
:10312000BC01621B71099B01DC01A41BB50BE1E032
:10313000F0E0EC0FFD1FAE0FBF1FE12EF12CF1945C
:10314000E194F1084F3FFFEF5F0731F4F601908201
:10315000B6016F5F7F4F6B01841795074CF0241702
:10316000350734F4BD01660D771DFB01118101C0E7
:1031700010E341505109FFEF6F1A7F0AB6016F5FEC
:103180007F4F4E155F0524F0F60110836B01DACFF7
:103190004817590739F4063320F4053319F4A11000
:1031A00001C011E3F6011083FB018B2D90E288230F
:1031B00019F091938150FBCFFB01EB0DF11D1082B3
:1031C00080E090E029960FB6F894DEBF0FBECDBF29
:1031D000DF91CF911F910F91FF90EF90DF90CF90F3
:1031E000BF90AF909F907F906F900895283008F027
:1031F00027E03327DA01990F311D87FD9160009692
:103200006105710539F432602E5F3D9330E32A95F4
:10321000E1F708959F3F30F080387105610509F0AE
:103220003C5F3C5F3D93913008F08068911DDF93D7
:10323000CF931F930F93FF92EF92192F987F96953C
:10324000E92F96959695E90FFF27E45AFE4F9927A7
:103250003327EE24FF24A701E70105900894079483
:1032600028F4360FE71EF81E491F511D660F771F01
:10327000881F991F0694A1F70590079428F4E70E7C
:10328000F81E491F561FC11D770F881F991F661F03
:103290000694A1F70590079428F4F80E491F561FCD
:1032A000C71FD11D880F991F661F771F0694A1F7AE
:1032B0000590079420F4490F561FC71FD81F990F78
:1032C000661F771F881F0694A9F7849110951770C1
:1032D00041F0D695C79557954795F794E7941A9579
:1032E000C1F7E2E0F1E06894159015913591659190
:1032F000959105907FE27395E118F10A430B560B07
:10330000C90BD009C0F7E10CF11E431F561FC91F9E
:10331000D01D7EF4703311F48A95E6CFE894015005
:1033200030F0080F0AF40027021708F4202F239525
:10333000022F7A3328F079E37D932A95E9F710C0BC
:103340007D932A9589F606949795679537951795F5
:103350001794E118F10A430B560BC90BD00998F0EA
:1033600023957E9173957A3308F070E37C93201354
:10337000B8F77E9170617D9330F0839571E37D9312
:1033800070E32A95E1F71124EF90FF900F911F91C0
:10339000CF91DF91992787FD90950895DC01FC017D
:1033A000672F71917723E1F7329704C07C916D9379
:1033B00070836291AE17BF07C8F308952F923F92B2
:1033C0004F925F926F927F928F929F92AF92BF9235
:1033D000CF92DF92EF92FF920F931F93CF93DF93E1
:1033E000CDB7DEB7CA1BDB0B0FB6F894DEBF0FBE3E
:1033F000CDBF09942A88398848885F846E847D848B
:103400008C849B84AA84B984C884DF80EE80FD808C
:103410000C811B81AA81B981CE0FD11D0FB6F89402
:10342000DEBF0FBECDBFED01089512E0C2E0D2E0D5
:1034300004C0FE010E9468142296C430D107C9F767
:04344000F894FFCF2E
:10344400000060038000400025002300570057431C
:1034540000303030005756005752002050200020D2
:10346400482000204620002053200000000000A92E
:10347400087C08510859086C087B08000000008F7C
:103484000BA50BB80B000000008F0BA50B0B0C0059
:10349400000000A10E1D10230E3C0E2E0E7F0E0008
:00000001FF
