:100000000C9482000C94AA000C94AA000C94AA00F0
:100010000C94AA000C94AA000C94AA000C94AA00B8
:100020000C94AA000C94AA000C94AA000C94AA00A8
:100030000C94AA000C94AA000C94AA000C94AA0098
:100040000C94B7060C94AA000C948D080C94BF086D
:100050000C94AA000C94AA000C94AA000C94AA0078
:100060000C94AA000C94AA002020202020202020FC
:10007000202020202020202020203133302020313B
:100080003330202020203230202020203230202009
:1000900020312020323030203020202031202020FC
:1000A0002020312020312020004052433030303099
:1000B000312020202020202020202020202020202F
:1000C0002020202020202020202020202020202030
:1000D0002020202020202020202020202020202020
:1000E000202020202020202020202020202020250B
:1000F0003039322300574330303030310000AC000B
:10010000EF08D20011241FBECFEFD8E0DEBFCDBF75
:1001100011E0A0E0B1E0EAE5F1E202C005900D9245
:10012000AE33B107D9F722E0AEE3B1E001C01D92D2
:10013000AE37B207E1F710E0C2E0D1E004C0229789
:10014000FE010E946A0DCE3FD107C9F70E94330914
:100150000C94A0100C94000040E050E0BA0181EA39
:1001600091E00E948F0620E030E0A90160E070E09D
:100170008EE891E00E94BA0540E050E0BA018BE5BC
:1001800091E00E948F0620E030E0A90160E070E07D
:1001900088E491E00E94BA0569E171E082E491E0AF
:1001A0000C94660A82E491E00C94F80926E040E0A1
:1001B00052EC61E070E08DED91E00E942B0868EC5C
:1001C00070E082E491E00E94290A6EE871E081EA21
:1001D00091E00E94450669E171E08EE891E00E949D
:1001E000E80548EC50E060E070E08EE891E00E94A5
:1001F000700568E471E08BE591E00E9445066BE4D0
:1002000074E088E491E00E94E80540E050E0BA0123
:1002100088E491E00C947005809140019091410137
:1002200002971CF481EA91E002C08BE591E00C9406
:10023000EC051F93CF93DF9300D000D000D0CDB753
:10024000DEB78DED91E00E94480718161906DCF51F
:100250004AE06DED71E0CE0101960E94D009BE0129
:100260006F5F7F4F82E491E00E94F30ACE01019616
:100270000E94F8098DED91E00E94A40765EF70E0FF
:10028000CE0101960E94910BBE016F5F7F4F82E409
:1002900091E00E945B0C182FCE0101960E94F80994
:1002A000112389F081E090E0909341018093400117
:1002B00069EA70E08DED91E00E946A096AE08DEDD7
:1002C00091E00E949B09809140019091410101972A
:1002D00049F480913E0190913F01019690933F0136
:1002E00080933E0180913E0190913F0109977CF0FF
:1002F00010923F0110923E0182E090E09093410104
:10030000809340016AE08DED91E00E949B09269662
:100310000FB6F894DEBF0FBECDBFDF91CF911F9116
:1003200008958F929F92AF92BF92CF92DF92EF92F9
:10033000FF920F931F93CF93DF93CDB7DEB76297F2
:100340000FB6F894DEBF0FBECDBF8C01EDB6FEB682
:10035000DC0114964D915C9115974F5F5F4FEDB79F
:10036000FEB7E41BF50B0FB6F894FEBF0FBEEDBF52
:100370008DB79EB701965C0120E030E0BC01C8015A
:100380000E948D0CF501D8011496CD90DC90159744
:1003900020E030E060E070E0CB012C153D0591F0ED
:1003A000A1912F5F3F4F4A2F42034001439F900C82
:1003B0001124AA2497FCA094BA2C680D791D8A1DDB
:1003C0009B1DEBCF23E630E040E050E00E94490D5A
:1003D000AB01BC012AE0CE010D960E94430B88E4DC
:1003E000A82EB12C89899A89A81AB90AD80114961D
:1003F0008D919C911597A81AB90A69E171E0CE0117
:1004000007960E94660A812C912CBE01695F7F4F7E
:10041000CE0101968A149B04ACF40E94EA0A63E1BF
:1004200071E0CE0101960E94030CBC01CE0107963B
:100430000E94D30ACE0101960E94F809BFEF8B1AE1
:100440009B0AE3CF0E94EA0ABE01635F7F4FCE01A1
:1004500001960E94F00BBC01CE0107960E94D30AC0
:10046000CE0101960E94F80966E071E0CE01019686
:100470000E94660AB801CE0101960E94F00B68E066
:1004800071E00E94030CBE01695F7F4F0E94F00B78
:100490006AE071E00E94030C6AE00E941D0CBC013E
:1004A0008DED91E00E948D09CE0101960E94F80920
:1004B0008DED91E00E94A407CE0107960E94F809F5
:1004C000CE010D960E94F8090FB6F894FEBE0FBE3D
:1004D000EDBE62960FB6F894DEBF0FBECDBFDF91C2
:1004E000CF911F910F91FF90EF90DF90CF90BF9031
:1004F000AF909F908F900895EF92FF920F931F936C
:10050000CF93DF93CDB7DEB7E6970FB6F894DEBF93
:100510000FBECDBF8C0122E030E040E050E0BC01D6
:10052000CE01C1960E94D70C25E030E042E050E0B9
:10053000B801CE018B960E94D70C25E430E045E04F
:1005400050E0B801CE0185960E94D70C69E171E0B8
:10055000CE014F960E94660A69E171E0CE0149968C
:100560000E94660A69E171E0CE0143960E94660A24
:1005700021E030E040E050E0BE016F5C7F4FCE01F3
:1005800001960E94D70C6CE071E0CE0101960E94AA
:100590006E0C182FCE0101960E94F8091123F1F07C
:1005A0006EE071E0CE01C1960E946E0C882381F04E
:1005B00061E171E0CE018B960E946E0C882341F0C0
:1005C000CE0185960E941C0D7093410160934001FD
:1005D00065E171E0CE01C1960E946E0C21E030E031
:1005E00040E050E0BE016F5C7F4FCE0107960E9455
:1005F000D70C6CE071E0CE0107960E946E0C811161
:100600001AC021E030E040E050E0BE016F5C7F4F57
:10061000CE0101960E94D70C66E171E0CE010196F1
:100620000E946E0C11E0811101C010E0CE01019614
:100630000E94F80901C011E0CE0107960E94F80956
:10064000112309F403C122E030E041E050E0BE0193
:100650006F5C7F4FCE0101960E94D70C6FE071E076
:10066000CE0101960E946E0C182FCE0101960E94B9
:10067000F809112309F446C061E171E0CE018B96BF
:100680000E946E0C8823F1F160914001709141014C
:100690004AE0CE0101960E94170BBE016F5F7F4FAB
:1006A000CE0149960E94F30ACE0101960E94F809F4
:1006B00000E010E022E0E22EF12C8D8D9E8D97015E
:1006C000281B390B0217130748F463E171E0CE01D0
:1006D00043960E94CD0B0F5F1F4FEFCFBE016D5EA3
:1006E0007F4FCE014F960E94C60BBE01675E7F4FC3
:1006F000CE014F960E94C60B69E171E0CE01439690
:100700000E94FF0A22E030E041E050E0BE016F5C51
:100710007F4FCE0101960E94D70C66E171E0CE01B9
:1007200001960E946E0C182FCE0101960E94F809C6
:10073000112309F43FC0CE018B960E941C0D68E680
:1007400070E0CE0101960E94910BBE016F5F7F4F5A
:10075000CE0149960E94F30ACE0101960E94F80943
:1007600000E010E090E4E92EF12C8D8D9E8D970134
:10077000281B390B0217130748F468E171E0CE011A
:1007800043960E94CD0B0F5F1F4FEFCFBE016D5EF2
:100790007F4FCE014F960E94C60BBE01675E7F4F12
:1007A000CE014F960E94C60B69E171E0CE014396DF
:1007B0000E94FF0A00E410E08BA19CA1081B190B0A
:1007C000E12CF12CE016F10654F468E171E0CE0161
:1007D0004F960E94CD0B3FEFE31AF30AF3CF22E0CE
:1007E00030E041E050E0BE016F5C7F4FCE010D96DE
:1007F0000E94D70C66E171E0CE0107960E94660A5E
:10080000BE01635F7F4FCE0107960E94F00BBE01D1
:10081000655D7F4F0E94F00BBE01615E7F4F0E94BD
:10082000F00BBC01CE0101960E94EA0ACE010196AE
:100830000E949101CE0101960E94F809CE0107960F
:100840000E94F809CE010D960E94F809CE01439648
:100850000E94F809CE0149960E94F809CE014F96F0
:100860000E94F809CE0185960E94F809CE018B9668
:100870000E94F809CE01C1960E94F809E6960FB6CB
:10088000F894DEBF0FBECDBFDF91CF911F910F91C6
:10089000FF90EF9008954F925F926F927F92AF9288
:1008A000BF92CF92DF92EF92FF920F931F93CF935D
:1008B000DF93CDB7DEB762970FB6F894DEBF0FBEF9
:1008C000CDBF0DB71EB78DED91E00E9448071816F9
:1008D00019060CF0EBC04AE06DED71E0CE01019617
:1008E0000E94D009BE016F5F7F4F82E491E00E94B9
:1008F000F30ACE0101960E94F8098DED91E00E9465
:10090000A40721E030E040E050E062E471E0CE0175
:1009100007960E94D70C66E071E0CE0107960E9410
:100920006E0C8823E1F020914601309147014AE4A2
:1009300050E062E471E0CE0101960E94D70C6AE0BB
:1009400071E0CE0101960E946E0CFF24F394811198
:1009500001C0F12CCE0101960E94F80901C0F12CD2
:10096000CE0107960E94F809FF2009F49FC0ADB69A
:10097000BEB668E071E0CE0101960E94660ABE0133
:100980006F5F7F4F82E491E00E94D30C9C0141E0B5
:1009900050E062E471E0CE010D960E94D70CCE01CA
:1009A00001960E94F80968E071E0CE0101960E946C
:1009B000660ABE016F5F7F4F82E491E00E94D30C14
:1009C000AC014F5F5F4F2AE430E062E471E0CE019A
:1009D00007960E94D70CCE0101960E94F80949891A
:1009E0005A894F5F5F4F8DB79EB7841B950B0FB62B
:1009F000F8949EBF0FBE8DBF01967C0120E030E0D1
:100A0000BC01CE010D960E948D0CF70189899A894F
:100A100020E030E0C12CD12C76012817390789F06D
:100A200061912F5F3F4F6203A001639F500D11241E
:100A3000662757FD6095762FC40ED51EE61EF71E5D
:100A4000ECCFCE0107960E941C0D2B013C01C70183
:100A5000B60123E630E040E050E00E94490D641505
:100A600075058605970579F4BE01635F7F4FCE015A
:100A700001960E94EA0ACE0101960E947C02CE01F4
:100A800001960E94F80969E171E082E491E00E9418
:100A9000FF0ACE0107960E94F809CE010D960E942A
:100AA000F8090FB6F894BEBE0FBEADBE0FB6F894EF
:100AB0001EBF0FBE0DBF62960FB6F894DEBF0FBE0D
:100AC000CDBFDF91CF911F910F91FF90EF90DF90FD
:100AD000CF90BF90AF907F906F905F904F900895B0
:100AE0000F931F93FC0142835383648375830681B4
:100AF000178120853185040F151F261F371F028798
:100B00001387248735871F910F9108950F931F93A3
:100B1000FC010285138524853585401B510B620B32
:100B2000730B77FD02C0808901C080E01F910F9197
:100B300008950F931F93CF93DF93EC01EE85FF850C
:100B4000309709F009950E9401076E837F8388879B
:100B500099870A811B812C813D81060F171F281F51
:100B6000391F0A871B872C873D87DF91CF911F9103
:100B70000F910895FC018EE191E09183808381E0E3
:100B8000808B778766871682178210861186F28B94
:100B9000E18B2283338344835583228733874487C1
:100BA000558708950F931F93FC01468357836087F1
:100BB00071870281138124813581040F151F261F3F
:100BC000371F02871387248735871F910F91089558
:100BD000FC017787668708958F929F92AF92BF92AC
:100BE000CF92DF92EF92FF920F931F93CF93DF93F9
:100BF000EC01EE85FF85309709F009950E94010709
:100C00006B017C018E015E012EE1A20EB11C812CD4
:100C1000912C89A99AA98815990524F1D801539690
:100C20008D919C9154970097C1F0BFEF8B1A9B0A4E
:100C3000DC01ED91FC910280F381E02DB701A6016A
:100C40000995882351F0F80183899489DC01ED919D
:100C5000FC910480F581E02D09950E5F1F4F0A1568
:100C60001B05B9F60E940107AB01BC01CE01DF9163
:100C7000CF911F910F91FF90EF90DF90CF90BF9099
:100C8000AF909F908F900C94D20520E030E0FC0153
:100C9000E20FF31F0388F489E02D309759F00188A3
:100CA000F289E02DDB0151964D915C915297E4174A
:100CB000F50719F12E5F3F4F2E31310541F7FC0149
:100CC00020E030E043895489452B79F4F901EE0F97
:100CD000FF1FE80FF91F748B638BFC0121A932A958
:100CE0002F5F3F4F32AB21AB08C02F5F3F4F329693
:100CF0002F30310539F780E0089581E0089520E034
:100D000030E0FC01E20FF31F148A138A2E5F3F4F7D
:100D10002E313105B1F7FC0112AA11AA0895CF9224
:100D2000DF92EF92FF92CF93DF93EC016A017B0198
:100D300020E030E0A90160E070E00E94BA0588E29E
:100D400091E0998388831AAA19AACE010E947F068E
:100D5000E881F9810190F081E02DB701A601CE0173
:100D6000DF91CF91FF90EF90DF90CF9009941F9289
:100D70000F920FB60F9211242F933F938F939F934F
:100D8000AF93BF938091D5019091D601A091D701E7
:100D9000B091D8013091D40123E0230F2D3720F4F6
:100DA0000196A11DB11D05C026E8230F0296A11DC5
:100DB000B11D2093D4018093D5019093D601A093C7
:100DC000D701B093D8018091D9019091DA01A09117
:100DD000DB01B091DC010196A11DB11D8093D90109
:100DE0009093DA01A093DB01B093DC01BF91AF9146
:100DF0009F918F913F912F910F900FBE0F901F9059
:100E000018952FB7F8946091D5017091D601809113
:100E1000D7019091D8012FBF0895789484B582604E
:100E200084BD84B5816084BD85B5826085BD85B58E
:100E3000816085BDEEE6F0E0808181608083E1E83D
:100E4000F0E0108280818260808380818160808375
:100E5000E0E8F0E0808181608083E1EBF0E0808178
:100E600084608083E0EBF0E0808181608083EAE74A
:100E7000F0E08081846080838081826080838081D3
:100E8000816080838081806880831092C100089592
:100E9000FC01818D228D90E0805C9F4F821B910927
:100EA0008F7399270895FC01918D828D981731F0E9
:100EB000828DE80FF11D858D90E008958FEF9FEFF3
:100EC0000895FC01918D828D981761F0828DDF016C
:100ED000A80FB11D5D968C91928D9F5F9F73928F2D
:100EE00090E008958FEF9FEF089585EE98E0892BAD
:100EF00049F080E090E0892B29F00E94E5088111FB
:100F00000C9400000895FC01848DDF01A80FB11D31
:100F1000A35ABF4F2C91848D90E001968F7399272F
:100F2000848FA689B7892C93A089B1898C9180641C
:100F30008C93938D848D981306C00288F389E02DDD
:100F400080818F7D80830895CF93DF93EC01888D1E
:100F50008823C9F0EA89FB89808185FD05C0A889BD
:100F6000B9898C9186FD0FC00FB607FCF5CF808143
:100F700085FFF2CFA889B9898C9185FFEDCFCE018D
:100F80000E948307E7CFDF91CF910895CF92DF9240
:100F9000FF920F931F93CF93DF931F92CDB7DEB7CE
:100FA0006C0181E0D60158968C9358975B969C9182
:100FB0005B975C968C915C97981307C05096ED9167
:100FC000FC915197808185FD2EC0F601038D10E0C4
:100FD0000F5F1F4F0F731127F02EF601848DF8124B
:100FE00011C00FB607FCF9CFD6015096ED91FC91D8
:100FF0005197808185FFF1CFC60169830E948307E5
:101000006981EBCF838DE80FF11DE35AFF4F6083B9
:10101000D6015B960C935B975296ED91FC9153979A
:10102000808180620CC0D6015696ED91FC91579755
:1010300060835096ED91FC9151978081806480830C
:1010400081E090E00F90DF91CF911F910F91FF9081
:10105000DF90CF900895BF92CF92DF92EF92FF92F0
:10106000CF93DF93EC016A017B01B22EE889F98905
:1010700082E08083411581EE580761057105A1F07A
:1010800060E079E08DE390E0A70196010E94270DD2
:1010900021503109410951095695479537952795B2
:1010A000211580E1380798F0E889F989108260E815
:1010B00074E88EE190E0A70196010E94270D21506F
:1010C0003109410951095695479537952795EC8582
:1010D000FD853083EE85FF852083188EEC89FD89A0
:1010E000B082EA89FB89808180618083EA89FB89FB
:1010F000808188608083EA89FB8980818068808321
:10110000EA89FB8980818F7D8083DF91CF91FF9079
:10111000EF90DF90CF90BF9008951F920F920FB67F
:101120000F9211242F938F939F93EF93FF93E0914E
:10113000ED01F091EE018081E091F301F091F40175
:1011400082FD12C090818091F6018F5F8F73209194
:10115000F701821751F0E091F601F0E0E352FE4F03
:10116000958F8093F60101C08081FF91EF919F914F
:101170008F912F910F900FBE0F901F9018951F9277
:101180000F920FB60F9211242F933F934F935F93BB
:101190006F937F938F939F93AF93BF93EF93FF933F
:1011A0008DED91E00E948307FF91EF91BF91AF9188
:1011B0009F918F917F916F915F914F913F912F916F
:1011C0000F900FBE0F901F9018958DED91E00E942B
:1011D000480721E0892B09F420E0822F089510921E
:1011E000E0011092DF0188EE93E0A0E0B0E0809390
:1011F000E1019093E201A093E301B093E40182E363
:1012000091E09093DE018093DD0185EC90E0909376
:10121000EA018093E90184EC90E09093EC018093E3
:10122000EB0180EC90E09093EE018093ED0181EC76
:1012300090E09093F0018093EF0182EC90E0909326
:10124000F2018093F10186EC90E09093F401809399
:10125000F3011092F6011092F7011092F80110922A
:10126000F901089508950E940D070E9432090E9415
:10127000D600C5E7D7E00E940C012097E1F30E9459
:101280007507F9CFCF92DF92EF92FF920F931F93E2
:10129000CF93DF937C016A01EB0100E010E00C15B5
:1012A0001D0571F06991D701ED91FC910190F081DC
:1012B000E02DC7010995892B19F00F5F1F4FEFCF64
:1012C000C801DF91CF911F910F91FF90EF90DF90B8
:1012D000CF900895EF92FF920F931F93CF93DF93D8
:1012E0008C017B01C0E0D0E0F701EC0FFD1F6491A1
:1012F000662359F0F801A081B181ED91FC91C801FC
:101300000995892B11F02196EFCFCE01DF91CF9176
:101310001F910F91FF90EF900895DC01ED91FC91EA
:10132000DB0114964D915C9115976D917C91028033
:10133000F381E02D0994DC01ED91FC910190F081A5
:10134000E02D09940F931F93CF93DF93EC010E943C
:101350000107688779878A879B87E881F9810680FA
:10136000F781E02DCE01099597FF15C00E94010776
:10137000088519852A853B85601B710B820B930BB1
:101380000C811D812E813F816017710782079307B1
:1013900020F38FEF9FEFDF91CF911F910F91089571
:1013A000EF92FF920F931F93CF93DF93EC018B018A
:1013B000E42E69E171E00E94660AC8010E94A20958
:1013C000FF24E7FCF09497FD0BC08E159F0541F0BC
:1013D000682FCE010E94DD0BC8010E94A209F3CF45
:1013E000CE01DF91CF911F910F91FF90EF90089563
:1013F000FC01808191810C94060ECF93DF93EC0168
:1014000088819981009711F00E94060E1982188236
:101410001D821C821B821A82DF91CF9108950F9347
:101420001F93CF93DF93EC018B016F5F7F4F888118
:1014300099810E94950E009731F0998388831B83D0
:101440000A8381E001C080E0DF91CF911F910F916D
:101450000895CF93DF93EC0188819981892B29F03E
:101460008A819B818617970760F4CE010E940F0A3C
:10147000882341F08C819D81892B19F4E881F981C1
:10148000108281E0DF91CF910895EF92FF920F9348
:101490001F93CF93DF93EC017B018A01BA010E9475
:1014A000290A811104C0CE010E94FD0907C01D83D5
:1014B0000C83B701888199810E94A80FCE01DF912A
:1014C000CF911F910F91FF90EF900895FC01118231
:1014D000108213821282158214826115710559F0EF
:1014E000FB0101900020E9F7AF0141505109461B73
:1014F000570B0C94450A0895EF92FF920F931F9398
:10150000CF93DF93EC017B018A01BA010E94290A83
:10151000811104C0CE010E94FD0907C01D830C8308
:10152000B701888199810E94860FCE01DF91CF910A
:101530001F910F91FF90EF9008950F931F93CF93FA
:10154000DF938C01EB01FC0180819181009799F080
:10155000428153812C813D814217530750F06881AD
:1015600079810E94A80F8C819D81F80195838483E5
:1015700013C00E94060E88819981F80191838083AF
:101580008A819B81938382838C819D8195838483CF
:10159000198218821B821A821D821C82DF91CF91D0
:1015A0001F910F910895CF93DF93EC01FB018617F4
:1015B000970761F0608171816115710529F044819F
:1015C00055810E94450A02C00E94FD09CE01DF91AB
:1015D000CF910895FC01118210821382128215822C
:1015E00014820C94D30ACF93DF93EC0186179707EC
:1015F00011F00E949D0ACE01DF91CF910895CF9303
:10160000DF93EC016115710561F0FB010190002091
:10161000E9F7AF0141505109461B570B0E94450A9B
:1016200002C00E94FD09CE01DF91CF9108950F9372
:101630001F93CF93DF93CDB7DEB762970FB6F894C1
:10164000DEBF0FBECDBF8C01CB01F801118210822D
:10165000138212821582148250E0BE016F5F7F4FA9
:101660000E94D80FBE016F5F7F4FC8010E94FF0A22
:1016700062960FB6F894DEBF0FBECDBFDF91CF915B
:101680001F910F9108950F931F93CF93DF93CDB7C1
:10169000DEB7A2970FB6F894DEBF0FBECDBF8C01A8
:1016A000CB01BA01F80111821082138212821582D5
:1016B000148230E0AE014F5F5F4F0E94EE0FBE011B
:1016C0006F5F7F4FC8010E94FF0AA2960FB6F89481
:1016D000DEBF0FBECDBFDF91CF911F910F91089557
:1016E0000F931F93CF93DF9300D0CDB7DEB78C015C
:1016F0006115710561F0CB0169837A830E948D0FBA
:10170000AC0169817A81C8010E947C0A02C00E94F2
:10171000FD09C8010F900F90DF91CF911F910F919C
:101720000895FC01118210821382128215821482A4
:101730000C94700BEF92FF920F931F93CF93DF9354
:10174000EC017B010C811D816115710511F480E0B4
:1017500016C04115510591F0040F151FB8010E94E4
:10176000290A8823A1F3288139818C819D81B701C1
:10177000820F931F0E94A80F1D830C8381E0DF91CD
:10178000CF911F910F91FF90EF900895FB0144813D
:101790005581608171810C949A0B6115710559F026
:1017A000FB0101900020E9F7AF0141505109461BB0
:1017B000570B0C949A0B80E00895CF93DF9300D0E1
:1017C000CDB7DEB769831A8241E050E0BE016F5F9A
:1017D0007F4F0E949A0B0F900F90DF91CF91089549
:1017E000CF93DF93EC01FB014481558160817181CE
:1017F0000E949A0B811103C0CE010E94FD09CE0107
:10180000DF91CF910895CF93DF93EC0161157105BE
:1018100069F0FB0101900020E9F7AF014150510947
:10182000461B570B0E949A0B811103C0CE010E94E8
:10183000FD09CE01DF91CF910895CF93DF93EC01A5
:101840000E94DD0B811103C0CE010E94FD09CE0173
:10185000DF91CF910895CF93DF93DC01ED91FC915F
:10186000EB01A881B981309711F01097C9F4109756
:1018700059F0EB012C813D81232B31F08C9190E0CC
:1018800091958195910914C0309781F0DC011496EF
:101890008D919C911597892B49F0808190E008C02B
:1018A000BD01CF01DF91CF910C949F0F80E090E0BC
:1018B000DF91CF910895FC0144815581FB01248182
:1018C00035814217530741F40E942B0C21E0892BEC
:1018D00009F020E0822F089580E00895FC01248122
:1018E0003581232B31F421E061157105A1F0FB0155
:1018F00008C0FC01808191816115710531F421E0FE
:10190000FC018081882339F005C00E949F0F21E0EF
:10191000892B09F020E0822F08950F931F93CF9316
:10192000DF93EB0141155105E9F02097D9F0FC0157
:101930006481758126173707A0F4621B730B8A0137
:10194000015011096017710708F48B01FC016081D7
:101950007181620F731FA801CE010E94AF0FC00FEB
:10196000D11F1882DF91CF911F910F910895CF93CE
:10197000DF93FC01848195814817590778F4C08171
:10198000D181FB0160817181CE01840F951F0E947E
:10199000BE0F009719F08C1B9D0B02C08FEF9FEFBD
:1019A000DF91CF91089540E050E00C94B70CBF92C6
:1019B000CF92DF92EF92FF920F931F93CF93DF931B
:1019C0006C017B01EA0189012417350720F48D2F72
:1019D000E901042F182F69E171E0C6010E94660A2F
:1019E000D70114968D919C911597C817D907C8F403
:1019F0008017910708F48C01D701ED91FC911197A4
:101A0000E00FF11FB08010826D917C916C0F7D1FF3
:101A1000C6010E94FF0AD701ED91FC91E00FF11F72
:101A2000B082C601DF91CF911F910F91FF90EF908F
:101A3000DF90CF90BF900895FC0180819181009745
:101A400011F00C945F0F60E070E0CB010895A1E20B
:101A50001A2EAA1BBB1BFD010DC0AA1FBB1FEE1F28
:101A6000FF1FA217B307E407F50720F0A21BB30B73
:101A7000E40BF50B661F771F881F991F1A9469F7EF
:101A800060957095809590959B01AC01BD01CF014B
:101A90000895052E97FB1EF400940E94600D57FDDB
:101AA00007D00E94270D07FC03D04EF40C94600D64
:101AB00050954095309521953F4F4F4F5F4F08957A
:101AC00090958095709561957F4F8F4F9F4F0895AA
:101AD000EE0FFF1F0590F491E02D0994CF93DF9353
:101AE0008230910510F482E090E0E0917C02F09168
:101AF0007D0220E030E0A0E0B0E0309739F1408195
:101B0000518148175907B8F04817590771F4828175
:101B10009381109729F013969C938E9312972CC063
:101B200090937D0280937C0227C02115310531F00E
:101B30004217530718F0A901DB0101C0EF019A0118
:101B4000BD01DF010280F381E02DD7CF21153105E2
:101B5000F9F0281B390B2430310580F48A819B81F0
:101B60006115710521F0FB019383828304C090937A
:101B70007D0280937C02FE01329644C0FE01E20F9A
:101B8000F31F8193919322503109398328833AC0FE
:101B900020917A0230917B02232B41F420910201A3
:101BA0003091030130937B0220937A02209100014F
:101BB000309101012115310541F42DB73EB7409117
:101BC000040150910501241B350BE0917A02F0913C
:101BD0007B02E217F307A0F42E1B3F0B28173907EF
:101BE00078F0AC014E5F5F4F2417350748F04E0F79
:101BF0005F1F50937B0240937A028193919302C0BE
:101C0000E0E0F0E0CF01DF91CF910895CF93DF9333
:101C1000009709F487C0FC01329713821282C091A9
:101C20007C02D0917D02209781F420813181280FA0
:101C3000391F80917A0290917B028217930779F580
:101C4000F0937B02E0937A026DC0DE0120E030E089
:101C5000AE17BF0750F412964D915C9113979D01FA
:101C60004115510509F1DA01F3CFB383A283408115
:101C70005181840F951F8A179B0771F48D919C9158
:101C80001197840F951F02969183808312968D91F0
:101C90009C911397938382832115310529F4F09346
:101CA0007D02E0937C023EC0D9011396FC93EE9333
:101CB00012974D915D91A40FB51FEA17FB0779F4B8
:101CC00080819181840F951F0296D90111969C9372
:101CD0008E938281938113969C938E931297E0E06A
:101CE000F0E08A819B81009719F0FE01EC01F9CFA9
:101CF000CE01029628813981820F931F20917A02AA
:101D000030917B022817390769F4309729F4109233
:101D10007D0210927C0202C013821282D0937B0259
:101D2000C0937A02DF91CF910895A0E0B0E0EBE993
:101D3000FEE00C946D10EC01CB01209719F40E9489
:101D40006E0DB8C0FE01E60FF71F9E01225031094B
:101D5000E217F30708F4ACC0D9010D911C9111975B
:101D600006171707B8F00530110508F49FC0A80141
:101D7000445051094617570708F498C002501109FA
:101D8000061B170B019311936D937C93CF010E9457
:101D9000060E8CC05B01A01AB10A4E01800E911E86
:101DA000A0917C02B0917D02612C712C60E070E00A
:101DB000109709F449C0A815B905C9F5ED90FC9034
:101DC0001197670142E0C40ED11CCA14DB0478F1FC
:101DD00047018A189B08640142E0C40ED11C129688
:101DE000BC9012971396AC91B5E0CB16D10440F09D
:101DF000B282A38391828082D9018D939C9309C082
:101E00000E5F1F4F0E0D1F1DF90111830083EB2D77
:101E1000FA2F6115710531F0DB011396FC93EE93F7
:101E2000129744C0F0937D02E0937C023FC06D9115
:101E30007C9111976616770608F43B01BD01129656
:101E40000D90BC91A02DB4CF60917A0270917B026D
:101E500068157905E9F468167906D0F44091000117
:101E6000509101014115510541F44DB75EB76091A4
:101E7000040170910501461B570BE417F507C0F4E8
:101E8000F0937B02E0937A02F901918380830EC084
:101E90000E946E0D7C01009759F0A801BE010E94BE
:101EA000960FCE010E94060EC70104C0CE0102C0EB
:101EB00080E090E0CDB7DEB7EEE00C9489101F9380
:101EC000FC0199278827BC01E89411911032E9F3AD
:101ED000193010F01E30C8F31B3251F01D3249F496
:101EE000689406C00E940810610F711D811D911D2C
:101EF000119110531A30B0F33EF49095809570957F
:101F000061957F4F8F4F9F4F1F910895FB01DC011B
:101F100005900D920020E1F70895FC010590002046
:101F2000E9F7809590958E0F9F1F0895FB01DC01C6
:101F300002C001900D9241505040D8F70895FB0126
:101F4000DC018D91019080190110D9F3990B08954E
:101F5000FB01DC0101900D920020E1F70895FB01E7
:101F6000DC014150504048F001900D920020C9F72B
:101F700001C01D9241505040E0F70895FB0151917E
:101F80005523A9F0BF01DC014D9145174111E1F73F
:101F900059F4CD010190002049F04D9140154111B7
:101FA000C9F3FB014111EFCF81E090E00197089563
:101FB0004532510520F4423010F00C94E30FFB0140
:101FC0001082CB010895BB274A3031F4992322F4C3
:101FD000BDE2909581959F4F0C94401025323105BC
:101FE00020F4223010F00C94F90FFA011082CA018B
:101FF0000895BB272A3051F4992342F4BDE290950D
:102000008095709561957F4F8F4F9F4F0C941E1058
:10201000592F482F372F262F660F771F881F991F9C
:10202000660F771F881F991F620F731F841F951FEC
:10203000660F771F881F991F0895BB27FA01A62FE7
:102040006217710581059105330B30FB66F0AA27F5
:10205000660F771F881F991FAA1FA21710F0A21BD7
:1020600063953850A9F7A05DAA3308F0A95DA19344
:1020700036F7B111B1931082CA010C945910BB27E5
:10208000FB015527AA27880F991FAA1FA41710F034
:10209000A41B83955051B9F7A05DAA3308F0A95D40
:1020A000A193009779F7B111B1931192CB010C94E0
:1020B0005910DC01FC01672F71917723E1F732970A
:1020C00004C07C916D9370836291AE17BF07C8F313
:1020D00008952F923F924F925F926F927F928F92CC
:1020E0009F92AF92BF92CF92DF92EF92FF920F93A7
:1020F0001F93CF93DF93CDB7DEB7CA1BDB0B0FB6B1
:10210000F894DEBF0FBECDBF09942A88398848886D
:102110005F846E847D848C849B84AA84B984C88403
:10212000DF80EE80FD800C811B81AA81B981CE0FFA
:10213000D11D0FB6F894DEBF0FBECDBFED010895DF
:1021400011E0C2E0D1E004C0FE010E946A0D2296B7
:0A215000C430D107C9F7F894FFCF9F
:10215A0000007E02800040002500230057005743FC
:10216A000030303000575200200000000000700597
:10217A00860599050000000070058605EC0500003B
:0E218A000000C6074209480761075307A40773
:00000001FF
