:100000000C9402010C942A010C942A010C942A01EC
:100010000C942A010C942A010C942A010C942A01B4
:100020000C942A010C942A010C942A010C942A01A4
:100030000C942A010C942A010C942A010C942A0194
:100040000C94480D0C942A010C94DA0F0C940C10AB
:100050000C942A010C942A010C942A010C942A0174
:100060000C94D40A0C942A01405243303030303181
:100070002020202020202020202020202020202080
:100080002020202020202020202020202020202070
:100090002020202020202020202020202020202060
:1000A000202020202020202020202020202025303B
:1000B000393223005743303030303100000000081F
:1000C000000201000003040700000000000000001F
:1000D00001020408102040800102040810200102DF
:1000E00004081020040404040404040402020202AC
:1000F000020203030303030300000000250028009D
:100100002B0000407A10F35A00A0724E180900101C
:10011000A5D4E80000E87648170000E40B5402007C
:1001200000CA9A3B000000E1F505000080969800A7
:10013000000040420F000000A086010000001027D0
:1001400000000000E8030000000064000000000060
:100150000A00000000000100000000002C76D88892
:10016000DC674F0823DFC1DFAE59E1B1B796E5E3A5
:10017000E453C63AE651997696E8E6C28426EB89BE
:100180008C9B62ED407C6FFCEFBC9C9F40F2BAA55B
:100190006FA5F490055A2AF75C936B6CF9676DC1F3
:1001A0001BFCE0E40D47FEF520E6B500D0ED902EF7
:1001B0000300943577050080841E080000204E0A55
:1001C000000000C80C333333330F986E1283114193
:1001D000EF8D2114893BE65516CFFEE6DB18D1845E
:1001E0004B381BF77C1D901DA4BBE4242032847285
:1001F0005E228100C9F124ECA1E53D273301EA0923
:100200003C10590111241FBECFEFD8E0DEBFCDBF97
:1002100011E0A0E0B1E0E8E2F5E302C005900D9244
:10022000A236B107D9F723E0A2E6B1E001C01D92E2
:10023000A236B207E1F711E0C2E0D2E004C0229793
:10024000FE010E94DA14CC3FD107C9F70E9480104A
:100250000C94871A0C940000DC01ED91FC91019044
:10026000F081E02D099440E050E0BA0185EC91E086
:100270000E94200D20E030E0A90160E070E082EBF8
:1002800091E00E944B0C40E050E0BA018FE791E012
:100290000E94200D20E030E0A90160E070E08CE6D3
:1002A00091E00E944B0C68E271E086E691E00C94CC
:1002B000B31186E691E00C94451188EF91E00E941D
:1002C0005A0926E040E052EC61E070E081EC92E0F7
:1002D0000E94780F68EC70E086E691E00E9476114B
:1002E00062EB71E085EC91E00E94D60C64EA71E06B
:1002F00082EB91E00E94790C48EC50E060E070E005
:1003000082EB91E00E94010C6CE671E08FE791E0D6
:100310000E94D60C6EE977E08CE691E00E94790CA1
:1003200040E050E0BA018CE691E00C94010C809121
:1003300064019091650102971CF485EC91E002C084
:100340008FE791E00C947D0C1F93CF93DF9300D047
:1003500000D000D0CDB7DEB781EC92E00E94950EC0
:1003600018161906DCF54AE061EC72E0CE01019640
:100370000E941D11BE016F5F7F4F86E691E00E94D3
:100380004012CE0101960E94451181EC92E00E943C
:10039000F10E64EB70E0CE0101960E940E13BE01D7
:1003A0006F5F7F4F86E691E00E94CA13182FCE013F
:1003B00001960E944511112389F081E090E090930D
:1003C00065018093640168E670E081EC92E00E9430
:1003D000B7106AE081EC92E00E94E810809164011D
:1003E00090916501019749F48091620190916301B8
:1003F00001969093630180936201809162019091D4
:100400006301099754F0109263011092620182E037
:1004100090E0909365018093640126960FB6F8945E
:10042000DEBF0FBECDBFDF91CF911F9108958F9298
:100430009F92AF92BF92CF92DF92EF92FF920F9373
:100440001F93CF93DF93CDB7DEB762970FB6F894C3
:10045000DEBF0FBECDBF8C01EDB6FEB6DC0114963B
:100460004D915C9115974F5F5F4FEDB7FEB7E41B61
:10047000F50B0FB6F894FEBF0FBEEDBF8DB79EB75C
:1004800001965C0120E030E0BC01C8010E94FC1331
:10049000F501D8011496CD90DC90159720E030E05E
:1004A00060E070E0CB012C153D0591F0A1912F5F2C
:1004B0003F4F4A2F42034001439F900C1124AA242E
:1004C00097FCA094BA2C680D791D8A1D9B1DEBCF5B
:1004D00023E630E040E050E00E94B914AB01BC01DB
:1004E0002AE0CE010D960E94901288E4A82EB12C2D
:1004F00089899A89A81AB90AD80114968D919C9174
:100500001597A81AB90A68E271E0CE0107960E9411
:10051000B311812C912CBE01695F7F4FCE010196F2
:100520008A149B04ACF40E94371263E171E0CE019F
:1005300001960E948013BC01CE0107960E942012F2
:10054000CE0101960E944511BFEF8B1A9B0AE3CFA3
:100550000E943712BE01635F7F4FCE0101960E9459
:100560006D13BC01CE0107960E942012CE010196A8
:100570000E94451166E071E0CE0101960E94B31120
:10058000B801CE0101960E946D1368E071E00E94EF
:100590008013BE01695F7F4F0E946D136AE071E0B6
:1005A0000E948013BC0181EC92E00E94DA10CE011F
:1005B00001960E9445116AE081EC92E00E94E810E9
:1005C00081EC92E00E94F10ECE0107960E94451147
:1005D000CE010D960E9445110FB6F894FEBE0FBED7
:1005E000EDBE62960FB6F894DEBF0FBECDBFDF91B1
:1005F000CF911F910F91FF90EF90DF90CF90BF9020
:10060000AF909F908F900895CF92DF92EF92FF92DC
:100610000F931F93CF93DF938C01EB017A01690154
:10062000BC0188EF91E00E946E096D2F70E088EFA9
:1006300091E00E942C01BE01772788EF91E00E9493
:100640002C0188EF91E00E94E709A601B80188EF2C
:1006500091E00E94E409C0E088EF91E00E94C308A5
:10066000892B69F011E01C0FC7018C0F911DEC0163
:1006700088EF91E00E94CB088883C12FEDCFDF91F6
:10068000CF911F910F91FF90EF90DF90CF90089541
:100690004F925F926F927F928F929F92AF92BF9292
:1006A000CF92DF92EF92FF920F931F93CF93DF933E
:1006B000CDB7DEB7A0970FB6F894DEBF0FBECDBFA3
:1006C0007C015B0168E271E00E94B311B5016150E9
:1006D00071098B01000F111F380182E0680E711C37
:1006E0005B0126E0AA0CBB1C2A95E1F7C12CD12C9A
:1006F0004E0191E2890E911C06151705F4F420E2D3
:1007000030E0AE014F5F5F4FB6016A0D7B1D80E5A3
:1007100090E00E940403FE0131962F01F2016191E5
:100720002F01C7010E945A1348145904B9F70F5FEB
:100730001F4FF0E2CF0ED11CDFCFC701A0960FB63E
:10074000F894DEBF0FBECDBFDF91CF911F910F9107
:10075000FF90EF90DF90CF90BF90AF909F908F90E1
:100760007F906F905F904F9008954F925F926F923D
:100770007F928F929F92AF92BF92CF92DF92EF9231
:10078000FF920F931F93CF93DF935C018B016A015C
:10079000FA013196EF01CC19DD0981918111FACF6F
:1007A0009801207C205C3F4F201B310B213131050B
:1007B00038F0822F8F70682E21F450E1652E01C031
:1007C000622E862D90E08C179D0728F47C2E7618DB
:1007D000272D2F70722E8C179D0748F4C81BD90B3C
:1007E00044E0D695C7954A95E1F7229602C0C1E04C
:1007F000D0E0E12CF12C412C4E0181E0881A9108C7
:10080000B50188EF91E00E946E09612F70E088EFDA
:1008100091E00E942C01B801772788EF91E00E94B7
:100820002C01542CF601E50DF11D608188EF91E05B
:100830000E941B095394F601E50DF11D8081811181
:100840001BC088EF91E00E94E709060D111D6AE0C8
:1008500070E080E090E00E94C10D2FEFE21AF20AF2
:10086000EC16FD0670F4E814F90411F4672C02C0CC
:1008700030E1632E452CC4CF852D8419861590F266
:10088000E0CFDF91CF911F910F91FF90EF90DF901C
:10089000CF90BF90AF909F908F907F906F905F9020
:1008A0004F900895EF92FF920F931F93CF93DF9392
:1008B000CDB7DEB7CE57D1090FB6F894DEBF0FBE65
:1008C000CDBF8C0122E030E040E050E0BC01CE0121
:1008D00087589F4F0E94461425E030E042E050E0E8
:1008E000B801CE018D589F4F0E94461425E430E098
:1008F00045E050E0B801CE0183599F4F0E94461455
:1009000068E271E0CE0189599F4F0E94B31168E2FD
:1009100071E0CE018F599F4F0E94B31168E271E0E0
:10092000CE01855A9F4F0E94B31121E030E040E094
:1009300050E0BE0167587F4FCE0101960E944614D9
:100940006CE071E0CE0101960E94DD13182FCE01FC
:1009500001960E944511112309F463C06EE071E015
:10096000CE0187589F4F0E94DD13882391F061E1EB
:1009700071E0CE018D589F4F0E94DD13882349F00E
:10098000CE0183599F4F0E948B1470936501609331
:10099000640165E171E0CE0187589F4F0E94DD132D
:1009A000882309F120E030E042E450E0BE016F5FAF
:1009B0007F4FCE0183599F4F0E94FC13CE018D586B
:1009C0009F4F0E948B146150710981099109A6E023
:1009D000660F771FAA95E1F7AE014F5F5F4F80E585
:1009E00090E00E94B50368E171E0CE0187589F4F07
:1009F0000E94DD138823A9F020E030E042E450E0BB
:100A0000BE016F5F7F4FCE0183599F4F0E94FC1341
:100A1000AE014F5F5F4F60E87DE780E590E00E94A8
:100A2000B50321E030E040E050E0BE0167587F4F61
:100A3000CE018D5B9F4F0E9446146CE071E0CE01A9
:100A40008D5B9F4F0E94DD1381111AC021E030E0C1
:100A500040E050E0BE0167587F4FCE0101960E94F2
:100A6000461466E171E0CE0101960E94DD1311E0AB
:100A7000811101C010E0CE0101960E94451101C014
:100A800011E0CE018D5B9F4F0E944511112309F4A7
:100A900029C222E030E041E050E0BE0167587F4FBC
:100AA000CE0101960E9446146FE071E0CE010196DE
:100AB0000E94DD13182FCE0101960E9445111123CB
:100AC00009F44FC061E171E0CE018D589F4F0E9443
:100AD000DD13882309F445C06091640170916501BC
:100AE0004AE0CE0101960E946412BE016F5F7F4F03
:100AF000CE018F599F4F0E944012CE0101960E9455
:100B0000451100E010E0F2E0EF2EF12CA7968EAD3B
:100B10009FADA7979701281B390B0217130750F4B5
:100B200063E171E0CE01855A9F4F0E944A130F5F27
:100B30001F4FECCFBE01655A7F4FCE0189599F4FA1
:100B40000E944313BE016F597F4FCE0189599F4FB9
:100B50000E94431368E271E0CE01855A9F4F0E94C4
:100B60004C1222E030E041E050E0BE0167587F4F78
:100B7000CE0101960E9446146BE171E0CE01019610
:100B80000E94DD13182FCE0101960E9445111123FA
:100B900009F49BC04AE06CEE73E0CE0101960E941E
:100BA000641222E04FE155E86BEC7FE3CE018D5BF0
:100BB0009F4F0E94BD1222E047ED53EA60E97FE3B8
:100BC000CE01875B9F4F0E94BD124AE064EF71E047
:100BD000CE018B5A9F4F0E9464126DE171E0CE01ED
:100BE000815B9F4F0E94B311BE016B5A7F4FCE01B4
:100BF000815B9F4F0E946D1361E271E00E94801340
:100C0000BE01675B7F4F0E946D1365E271E00E9439
:100C10008013BE016D5B7F4F0E946D1369E271E02E
:100C20000E948013BE016F5F7F4F0E946D13BC0155
:100C3000CE018F599F4F0E942012CE01815B9F4FA2
:100C40000E944511CE018B5A9F4F0E944511CE0143
:100C5000875B9F4F0E944511CE018D5B9F4F0E9485
:100C60004511CE0101960E94451100E010E0EBE134
:100C7000EE2EF12CA7968EAD9FADA7979701281B5E
:100C8000390B0217130750F467E271E0CE01855A61
:100C90009F4F0E944A130F5F1F4FECCFBE01655A52
:100CA0007F4FCE0189599F4F0E944313BE016F5958
:100CB0007F4FCE0189599F4F0E94431368E271E034
:100CC000CE01855A9F4F0E944C1222E030E041E055
:100CD00050E0BE0167587F4FCE0101960E94461436
:100CE00066E171E0CE0101960E94DD13182FCE015E
:100CF00001960E944511112309F445C0CE018D587B
:100D00009F4F0E948B14CE0101960E944803BE01A2
:100D10006F5F7F4FCE018F599F4F0E944012CE01CF
:100D200001960E94451100E010E070E4E72EF12CDE
:100D3000A7968EAD9FADA7979701281B390B021779
:100D4000130750F467E271E0CE01855A9F4F0E946D
:100D50004A130F5F1F4FECCFBE01655A7F4FCE0184
:100D600089599F4F0E944313BE016F597F4FCE0197
:100D700089599F4F0E94431368E271E0CE01855A62
:100D80009F4F0E944C1222E030E041E050E0BE0153
:100D900067587F4FCE0101960E94461469E171E0C9
:100DA000CE0101960E94DD13182FCE0101960E94FC
:100DB0004511112309F442C066EF71E0CE0101969E
:100DC0000E944803BE016F5F7F4FCE018F599F4F36
:100DD0000E944012CE0101960E94451100E010E0F1
:100DE00060E4E62EF12CA7968EAD9FADA7979701F4
:100DF000281B390B0217130750F467E271E0CE018C
:100E0000855A9F4F0E944A130F5F1F4FECCFBE01C0
:100E1000655A7F4FCE0189599F4F0E944313BE01EF
:100E20006F597F4FCE0189599F4F0E94431368E24B
:100E300071E0CE01855A9F4F0E944C1200E410E0F1
:100E4000AD968EAD9FADAD97081B190BE12CF12C23
:100E5000E016F1065CF467E271E0CE0189599F4F1C
:100E60000E944A133FEFE31AF30AF2CF22E030E088
:100E700041E050E0BE0167587F4FCE01875B9F4F36
:100E80000E94461466E171E0CE018D5B9F4F0E9487
:100E9000B311BE01675B7F4FCE018D5B9F4F0E94F8
:100EA0006D13BE016D587F4F0E946D13BE016959CD
:100EB0007F4F0E946D13BC01CE0101960E94371234
:100EC000CE0101960E941702CE0101960E944511A3
:100ED000CE018D5B9F4F0E944511CE01875B9F4FD6
:100EE0000E944511CE01855A9F4F0E944511CE01A7
:100EF0008F599F4F0E944511CE0189599F4F0E94E3
:100F00004511CE0183599F4F0E944511CE018D5846
:100F10009F4F0E944511CE0187589F4F0E94451157
:100F2000C258DF4F0FB6F894DEBF0FBECDBFDF91C2
:100F3000CF911F910F91FF90EF9008954F925F9284
:100F40006F927F92AF92BF92CF92DF92EF92FF9219
:100F50000F931F93CF93DF93CDB7DEB762970FB692
:100F6000F894DEBF0FBECDBF0DB71EB781EC92E087
:100F70000E94950E181619060CF0EBC04AE061ECC1
:100F800072E0CE0101960E941D11BE016F5F7F4F7E
:100F900086E691E00E944012CE0101960E94451122
:100FA00081EC92E00E94F10E21E030E040E050E060
:100FB00066E671E0CE0107960E94461466E071E095
:100FC000CE0107960E94DD138823E1F020916A018B
:100FD00030916B014AE450E066E671E0CE01019683
:100FE0000E9446146AE071E0CE0101960E94DD1372
:100FF000FF24F394811101C0F12CCE0101960E94CF
:10100000451101C0F12CCE0107960E944511FF2029
:1010100009F49FC0ADB6BEB668E071E0CE0101969E
:101020000E94B311BE016F5F7F4F86E691E00E9480
:1010300042149C0141E050E066E671E0CE010D965D
:101040000E944614CE0101960E94451168E071E0AD
:10105000CE0101960E94B311BE016F5F7F4F86E6FD
:1010600091E00E944214AC014F5F5F4F2AE430E0F0
:1010700066E671E0CE0107960E944614CE01019605
:101080000E94451149895A894F5F5F4F8DB79EB7BE
:10109000841B950B0FB6F8949EBF0FBE8DBF0196B3
:1010A0007C0120E030E0BC01CE010D960E94FC13D3
:1010B000F70189899A8920E030E0C12CD12C760192
:1010C0002817390789F061912F5F3F4F6203A00114
:1010D000639F500D1124662757FD6095762FC40E2F
:1010E000D51EE61EF71EECCFCE0107960E948B148C
:1010F0002B013C01C701B60123E630E040E050E09F
:101100000E94B914641575058605970579F4BE012A
:10111000635F7F4FCE0101960E943712CE01019688
:101120000E945204CE0101960E94451168E271E0CE
:1011300086E691E00E944C12CE0107960E9445116E
:10114000CE010D960E9445110FB6F894BEBE0FBE9B
:10115000ADBE0FB6F8941EBF0FBE0DBF62960FB6A0
:10116000F894DEBF0FBECDBFDF91CF911F910F91DD
:10117000FF90EF90DF90CF90BF90AF907F906F90F7
:101180005F904F9008958091280290E0209129026D
:10119000821B910908952091290280912802281725
:1011A00050F4E22FF0E0E65DFD4F808190E02F5F8C
:1011B0002093290208958FEF9FEF0895E09129026F
:1011C00080912802E81730F4F0E0E65DFD4F808161
:1011D00090E008958FEF9FEF08950895CF92DF92EA
:1011E000EF92FF920F931F93CF93DF937C01CB017C
:1011F0008A0120910402222389F0EB016B01C40EC5
:10120000D51ECC15DD0569F06991D701ED91FC91F2
:101210000190F081E02DC7010995F3CF642F0E9462
:10122000AB0AC801DF91CF911F910F91FF90EF9012
:10123000DF90CF900895CF93DF931F92CDB7DEB7A5
:101240006983209104022223D1F0209105022032EB
:1012500040F021E030E0FC013383228380E090E025
:1012600015C080910602E82FF0E0E95FFD4F9981FB
:1012700090838F5F809306028093050205C061E032
:10128000CE0101960E94AB0A81E090E00F90DF91C1
:10129000CF910895FC011382128248EE53E060E082
:1012A00070E0448355836683778381E391E0918383
:1012B000808308951092290210922802109206024B
:1012C000109205020C94EE0981E080930402609371
:1012D0002702109206021092050208950C946409E8
:1012E0000F93062F21E04091050267E072E08091A4
:1012F00027020E94540A10920602109205021092D0
:1013000004020F9108958F929F92AF92BF92CF9255
:10131000DF92EF92FF920F931F93CF93DF93EC0135
:10132000F62ED42E48015901EE2019F10E946409CD
:101330001E2D143008F013E01150B8F0E881F98147
:1013400028E0129FB0011124A501940104C0569514
:101350004795379527956A95D2F7CA01B90101904B
:10136000F081E02DCE010995E7CF60E0CE010E942B
:1013700070094D2D413208F040E22C2D6AE272E0F6
:101380008F2D0E940C0A1092290280932802DF916F
:10139000CF911F910F91FF90EF90DF90CF90BF9072
:1013A000AF909F908F900895CF92EF920F931F93DD
:1013B000C22EE12C00E010E098010E9483091F91E9
:1013C0000F91EF90CF90089521E00C94D40961E043
:1013D0000C94700988EF91E00C944A091092B702BE
:1013E00081E08093B5021092B40261E082E10E9434
:1013F0005F0E61E083E10E945F0EE9EBF0E0808127
:101400008E7F808380818D7F808388E48093B80085
:1014100085E48093BC000895413208F043C0909168
:10142000B7029111FCCF91E09093B7022093B502DF
:101430002FEF20934A0210928F02240F20938E02E6
:101440009093B6029091B602880F892B8093B602D2
:101450008091B402813061F41092B4028091B6029E
:101460008093BB008091BC0083FDF8CF85EC01C068
:1014700085EE8093BC008091B7028130E1F38091CA
:101480008F02841710F440918F0220E932E0FB01B3
:10149000D9018A2F821B841718F48D918193F9CF7B
:1014A000842F089580E008950F93413208F04AC0D8
:1014B0009091B7029111FCCF92E09093B702009304
:1014C000B5029FEF90934A0210928F0240938E02D2
:1014D000FB0160E972E0DB019A2F961B941718F468
:1014E00091919D93F9CF1092B6029091B602880F18
:1014F000892B8093B6028091B402813061F41092FE
:10150000B4028091B6028093BB008091BC0083FD41
:10151000F8CF85EC01C085EE8093BC00222321F03A
:101520008091B7028230E1F380914A028F3F61F0EF
:1015300080914A02803251F080914A02803341F416
:1015400083E007C081E005C080E003C082E001C005
:1015500084E00F910895613298F42091B70224300D
:1015600089F460936C02FC018EE692E0DC012A2F84
:10157000281B261718F421912D93F9CF80E00895A8
:1015800081E0089582E0089585ED8093BC0080910C
:10159000BC0084FDFCCF1092B702089585EC8093C7
:1015A000BC001092B70208951F920F920FB60F92CF
:1015B00011242F933F934F935F936F937F938F9358
:1015C0009F93AF93BF93EF93FF938091B900887F70
:1015D000803609F49EC078F5883209F45DC090F435
:1015E000803109F456C038F4882309F4F5C08830F6
:1015F00009F44FC0F5C0883109F44EC0803209F4B7
:101600005FC0EEC0803409F46AC058F4803309F436
:1016100057C0883309F0E4C080934A020E94CE0A82
:10162000DFC0803509F44FC0883509F45DC08834C7
:1016300009F0D6C0D3C0883909F4C4C0A8F48837EB
:1016400009F467C038F4883609F463C0803709F4B8
:1016500060C0C6C0883809F4B5C0803909F45FC0DD
:10166000803809F0BDC05BC0803B09F483C038F40A
:10167000803A09F466C0883A09F47CC0B1C0803C65
:1016800009F4A4C0883C09F4A1C0883B09F487C0D0
:10169000A7C08091B60210C090918F0280918E02F7
:1016A000981770F5E0918F0281E08E0F80938F0282
:1016B000F0E0E057FD4F80818093BB0085EC83C054
:1016C00080934A028BC0E0918F0281E08E0F80935D
:1016D0008F028091BB00F0E0E057FD4F8083909136
:1016E0008F0280918E026BC0E0918F0281E08E0F9D
:1016F00080938F028091BB00F0E0E057FD4F808324
:101700008091B50281116AC081E08093B40284EABD
:101710005EC083E08093B70210924B02CFCF8091DE
:101720004B02803208F04EC0E0914B0281E08E0FF8
:1017300080934B028091BB00F0E0E45BFD4F80831F
:10174000BDCF0E94CE0A80914B02803230F4E091EE
:101750004B02F0E0E45BFD4F108260914B0270E0C1
:10176000E091B002F091B1028CE492E00995109200
:101770004B0236C084E08093B70210926D02109243
:101780006C02E091B202F091B302099580916C0273
:10179000811105C081E080936C0210926E02E0918D
:1017A0006D0281E08E0F80936D02F0E0E259FD4FF3
:1017B00080818093BB0090916D0280916C0298179C
:1017C00008F47CCF85E88093BC000AC085EC809348
:1017D000BC001092B70204C010924A020E94C40AD0
:1017E000FF91EF91BF91AF919F918F917F916F91F9
:1017F0005F914F913F912F910F900FBE0F901F90CF
:1018000018950F931F93FC01428353836483758360
:101810000681178120853185040F151F261F371F6C
:1018200002871387248735871F910F9108950F939F
:101830001F93FC010285138524853585401B510BC0
:10184000620B730B77FD02C0808901C080E01F919D
:101850000F9108950F931F93CF93DF93EC01EE85C3
:10186000FF85309709F009950E94920D6E837F8362
:10187000888799870A811B812C813D81060F171F5C
:10188000281F391F0A871B872C873D87DF91CF913F
:101890001F910F910895FC0181E491E09183808371
:1018A00081E0808B77876687168217821086118683
:1018B000F28BE18B228333834483558322873387E2
:1018C0004487558708950F931F93FC0146835783E0
:1018D000608771870281138124813581040F151F70
:1018E000261F371F02871387248735871F910F9183
:1018F0000895FC017787668708958F929F92AF9233
:10190000BF92CF92DF92EF92FF920F931F93CF93EC
:10191000DF93EC01EE85FF85309709F009950E9471
:10192000920D6B017C018E015E012EE1A20EB11CB5
:10193000812C912C89A99AA98815990524F1D8019F
:1019400053968D919C9154970097C1F0BFEF8B1ADD
:101950009B0ADC01ED91FC910280F381E02DB7013F
:10196000A6010995882351F0F80183899489DC0147
:10197000ED91FC910480F581E02D09950E5F1F4FDC
:101980000A151B05B9F60E94920DAB01BC01CE01F0
:10199000DF91CF911F910F91FF90EF90DF90CF904B
:1019A000BF90AF909F908F900C94630C20E030E03C
:1019B000FC01E20FF31F0388F489E02D309759F002
:1019C0000188F289E02DDB0151964D915C9152978F
:1019D000E417F50719F12E5F3F4F2E31310541F71E
:1019E000FC0120E030E043895489452B79F4F9016A
:1019F000EE0FFF1FE80FF91F748B638BFC0121A909
:101A000032A92F5F3F4F32AB21AB08C02F5F3F4F52
:101A100032962F30310539F780E0089581E008953E
:101A200020E030E0FC01E20FF31F148A138A2E5FDE
:101A30003F4F2E313105B1F7FC0112AA11AA0895CA
:101A4000CF92DF92EF92FF92CF93DF93EC016A0186
:101A50007B0120E030E0A90160E070E00E944B0CC7
:101A60008BE491E0998388831AAA19AACE010E9477
:101A7000100DE881F9810190F081E02DB701A601F8
:101A8000CE01DF91CF91FF90EF90DF90CF9009943E
:101A90001F920F920FB60F9211242F933F938F93A3
:101AA0009F93AF93BF938091B9029091BA02A09196
:101AB000BB02B091BC023091B80223E0230F2D3756
:101AC00020F40196A11DB11D05C026E8230F029642
:101AD000A11DB11D2093B8028093B9029093BA0260
:101AE000A093BB02B093BC028091BD029091BE0254
:101AF000A091BF02B091C0020196A11DB11D8093BB
:101B0000BD029093BE02A093BF02B093C002BF91EA
:101B1000AF919F918F913F912F910F900FBE0F909A
:101B20001F9018952FB7F8946091B9027091BA027E
:101B30008091BB029091BC022FBF08953FB7F894EB
:101B40008091BD029091BE02A091BF02B091C002EF
:101B500026B5A89B05C02F3F19F00196A11DB11D08
:101B60003FBF6627782F892F9A2F620F711D811D25
:101B7000911D42E0660F771F881F991F4A95D1F784
:101B800008958F929F92AF92BF92CF92DF92EF9281
:101B9000FF926B017C010E949E0D4B015C01C11400
:101BA000D104E104F104F1F00E9496140E949E0D0C
:101BB000681979098A099B09683E73408105910576
:101BC00070F321E0C21AD108E108F10888EE880E0E
:101BD00083E0981EA11CB11CC114D104E104F104DE
:101BE00029F7DDCFFF90EF90DF90CF90BF90AF90BF
:101BF0009F908F900895789484B5826084BD84B559
:101C0000816084BD85B5826085BD85B5816085BDF7
:101C1000EEE6F0E0808181608083E1E8F0E0108210
:101C2000808182608083808181608083E0E8F0E051
:101C3000808181608083E1EBF0E08081846080833B
:101C4000E0EBF0E0808181608083EAE7F0E0808172
:101C500084608083808182608083808181608083D2
:101C60008081806880831092C1000895833081F064
:101C700028F4813099F08230A1F008958730A9F0DE
:101C80008830B9F08430D1F4809180008F7D03C01A
:101C9000809180008F7780938000089584B58F773E
:101CA00002C084B58F7D84BD08958091B0008F7788
:101CB00003C08091B0008F7D8093B00008950F9392
:101CC0001F93CF93DF931F92CDB7DEB7282F30E05D
:101CD000F901E454FF4F8491F901E053FF4F14914F
:101CE000F901EC51FF4F04910023C9F0882321F042
:101CF00069830E94360E6981E02FF0E0EE0FFF1F2E
:101D0000E850FF4FA591B4919FB7F8948C91611161
:101D100003C01095812301C0812B8C939FBF0F902E
:101D2000DF91CF911F910F910895FC01818D228D3C
:101D300090E0805C9F4F821B91098F7399270895D3
:101D4000FC01918D828D981731F0828DE80FF11D85
:101D5000858D90E008958FEF9FEF0895FC01918DA0
:101D6000828D981761F0828DDF01A80FB11D5D96FD
:101D70008C91928D9F5F9F73928F90E008958FEF6B
:101D80009FEF089582E390E1892B49F080E090E095
:101D9000892B29F00E94321081110C9400000895C3
:101DA000FC01848DDF01A80FB11DA35ABF4F2C91F8
:101DB000848D90E001968F739927848FA689B789C7
:101DC0002C93A089B1898C9180648C93938D848DA0
:101DD000981306C00288F389E02D80818F7D80836F
:101DE0000895CF93DF93EC01888D8823C9F0EA89A9
:101DF000FB89808185FD05C0A889B9898C9186FD04
:101E00000FC00FB607FCF5CF808185FFF2CFA88900
:101E1000B9898C9185FFEDCFCE010E94D00EE7CF1E
:101E2000DF91CF910895CF92DF92FF920F931F938E
:101E3000CF93DF931F92CDB7DEB76C0181E0D6015F
:101E400058968C9358975B969C915B975C968C9177
:101E50005C97981307C05096ED91FC915197808143
:101E600085FD2EC0F601038D10E00F5F1F4F0F732D
:101E70001127F02EF601848DF81211C00FB607FC61
:101E8000F9CFD6015096ED91FC915197808185FF55
:101E9000F1CFC60169830E94D00E6981EBCF838D9B
:101EA000E80FF11DE35AFF4F6083D6015B960C9358
:101EB0005B975296ED91FC915397808180620CC0A4
:101EC000D6015696ED91FC91579760835096ED910F
:101ED000FC91519780818064808381E090E00F9035
:101EE000DF91CF911F910F91FF90DF90CF900895D8
:101EF000BF92CF92DF92EF92FF92CF93DF93EC01EC
:101F00006A017B01B22EE889F98982E0808341155C
:101F100081EE580761057105A1F060E079E08DE37D
:101F200090E0A70196010E949714215031094109C0
:101F300051095695479537952795211580E1380722
:101F400098F0E889F989108260E874E88EE190E001
:101F5000A70196010E9497142150310941095109A6
:101F60005695479537952795EC85FD853083EE8509
:101F7000FF852083188EEC89FD89B082EA89FB8970
:101F8000808180618083EA89FB8980818860808389
:101F9000EA89FB89808180688083EA89FB89808166
:101FA0008F7D8083DF91CF91FF90EF90DF90CF9076
:101FB000BF9008951F920F920FB60F9211242F9386
:101FC0008F939F93EF93FF93E091D102F091D20210
:101FD0008081E091D702F091D80282FD12C09081F9
:101FE0008091DA028F5F8F732091DB02821751F0AC
:101FF000E091DA02F0E0EF53FD4F958F8093DA0223
:1020000001C08081FF91EF919F918F912F910F904F
:102010000FBE0F901F9018951F920F920FB60F9240
:1020200011242F933F934F935F936F937F938F93DD
:102030009F93AF93BF93EF93FF9381EC92E00E9445
:10204000D00EFF91EF91BF91AF919F918F917F91B2
:102050006F915F914F913F912F910F900FBE0F9015
:102060001F90189581EC92E00E94950E21E0892B3B
:1020700009F420E0822F08951092C4021092C30246
:1020800088EE93E0A0E0B0E08093C5029093C60292
:10209000A093C702B093C80285E591E09093C20275
:1020A0008093C10285EC90E09093CE028093CD02A4
:1020B00084EC90E09093D0028093CF0280EC90E08B
:1020C0009093D2028093D10281EC90E09093D4025D
:1020D0008093D30282EC90E09093D6028093D50255
:1020E00086EC90E09093D8028093D7021092DA02A7
:1020F0001092DB021092DC021092DD020895089526
:102100000E94FB0D0E947F100E945D01C2ECDEE088
:102110000E9497012097E1F30E94C20EF9CFCF925F
:10212000DF92EF92FF920F931F93CF93DF937C0187
:102130006A01EB0100E010E00C151D0571F06991DA
:10214000D701ED91FC910190F081E02DC701099537
:10215000892B19F00F5F1F4FEFCFC801DF91CF918F
:102160001F910F91FF90EF90DF90CF900895EF9225
:10217000FF920F931F93CF93DF938C017B01C0E0FD
:10218000D0E0F701EC0FFD1F6491662359F0F801D0
:10219000A081B181ED91FC91C8010995892B11F0C5
:1021A0002196EFCFCE01DF91CF911F910F91FF903C
:1021B000EF900895DC01ED91FC91DB0114964D91B7
:1021C0005C9115976D917C910280F381E02D0994CB
:1021D000DC01ED91FC910190F081E02D09940F93C9
:1021E0001F93CF93DF93EC010E94920D688779874C
:1021F0008A879B87E881F9810680F781E02DCE01EF
:10220000099597FF15C00E94920D088519852A85AA
:102210003B85601B710B820B930B0C811D812E8102
:102220003F81601771078207930720F38FEF9FEFBD
:10223000DF91CF911F910F910895EF92FF920F932D
:102240001F93CF93DF93EC018B01E42E68E271E0E2
:102250000E94B311C8010E94EF10FF24E7FCF09424
:1022600097FD0BC08E159F0541F0682FCE010E948F
:102270005A13C8010E94EF10F3CFCE01DF91CF9126
:102280001F910F91FF90EF900895FC018081918143
:102290000C949715CF93DF93EC0188819981009777
:1022A00011F00E949715198218821D821C821B82D0
:1022B0001A82DF91CF9108950F931F93CF93DF93ED
:1022C000EC018B016F5F7F4F888199810E942616F8
:1022D000009731F0998388831B830A8381E001C0D2
:1022E00080E0DF91CF911F910F910895CF93DF93FD
:1022F000EC0188819981892B29F08A819B8186173D
:10230000970760F4CE010E945C11882341F08C8114
:102310009D81892B19F4E881F981108281E0DF9198
:10232000CF910895EF92FF920F931F93CF93DF9376
:10233000EC017B018A01BA010E947611811104C06F
:10234000CE010E944A1107C01D830C83B70188810A
:1023500099810E943917CE01DF91CF911F910F9182
:10236000FF90EF900895FC01118210821382128277
:10237000158214826115710559F0FB01019000204E
:10238000E9F7AF0141505109461B570B0C949211CC
:102390000895EF92FF920F931F93CF93DF93EC0179
:1023A0007B018A01BA010E947611811104C0CE011D
:1023B0000E944A1107C01D830C83B701888199814F
:1023C0000E941717CE01DF91CF911F910F91FF90BF
:1023D000EF9008950F931F93CF93DF938C01EB0140
:1023E000FC0180819181009799F0428153812C8179
:1023F0003D814217530750F0688179810E94391757
:102400008C819D81F8019583848313C00E94971568
:1024100088819981F801918380838A819B8193834C
:1024200082838C819D8195838483198218821B828B
:102430001A821D821C82DF91CF911F910F91089506
:10244000CF93DF93EC01FB018617970761F0608162
:1024500071816115710529F0448155810E949211A5
:1024600002C00E944A11CE01DF91CF910895FC0174
:102470001182108213821282158214820C9420120F
:10248000CF93DF93EC018617970711F00E94EA11B2
:10249000CE01DF91CF910895CF93DF93EC016115C9
:1024A000710561F0FB0101900020E9F7AF01415097
:1024B0005109461B570B0E94921102C00E944A11FB
:1024C000CE01DF91CF9108950F931F93CF93DF93A8
:1024D000CDB7DEB762970FB6F894DEBF0FBECDBFA3
:1024E0008C01CB01F80111821082138212821582B5
:1024F000148250E0BE016F5F7F4F0E946917BE01DA
:102500006F5F7F4FC8010E944C1262960FB6F8941D
:10251000DEBF0FBECDBFDF91CF911F910F91089508
:102520000F931F93CF93DF93CDB7DEB7A2970FB66C
:10253000F894DEBF0FBECDBF8C01CB01BA01F8010C
:1025400011821082138212821582148230E0AE0151
:102550004F5F5F4F0E947F17BE016F5F7F4FC801C3
:102560000E944C12A2960FB6F894DEBF0FBECDBFEC
:10257000DF91CF911F910F910895EF92FF920F93EA
:102580001F93CF93DF93CDB7DEB7A1970FB6F89423
:10259000DEBF0FBECDBF7C01CB01BA01F7011182B6
:1025A0001082138212821582148242E0420F8E0141
:1025B0000F5F1F4F0E94DE14BC01C7010E944C1226
:1025C000A1960FB6F894DEBF0FBECDBFDF91CF91BD
:1025D0001F910F91FF90EF9008950F931F93CF934A
:1025E000DF9300D0CDB7DEB78C016115710561F0C6
:1025F000CB0169837A830E941E17AC0169817A81BD
:10260000C8010E94C91102C00E944A11C8010F905E
:102610000F90DF91CF911F910F910895FC011182CE
:10262000108213821282158214820C94ED12EF92A2
:10263000FF920F931F93CF93DF93EC017B010C81EB
:102640001D816115710511F480E016C04115510519
:1026500091F0040F151FB8010E9476118823A1F391
:10266000288139818C819D81B701820F931F0E943F
:1026700039171D830C8381E0DF91CF911F910F915A
:10268000FF90EF900895FB01448155816081718135
:102690000C9417136115710559F0FB01019000208E
:1026A000E9F7AF0141505109461B570B0C94171322
:1026B00080E00895CF93DF9300D0CDB7DEB7698374
:1026C0001A8241E050E0BE016F5F7F4F0E941713F6
:1026D0000F900F90DF91CF910895CF93DF93EC018E
:1026E000FB0144815581608171810E941713811122
:1026F00003C0CE010E944A11CE01DF91CF9108950F
:10270000CF93DF93EC016115710569F0FB01019036
:102710000020E9F7AF0141505109461B570B0E94B9
:102720001713811103C0CE010E944A11CE01DF911F
:10273000CF910895CF93DF93DC01ED91FC91EB01F4
:10274000A881B981309711F01097C9F4109759F00A
:10275000EB012C813D81232B31F08C9190E0919500
:102760008195910914C0309781F0DC0114968D9108
:102770009C911597892B49F0808190E008C0BD019C
:10278000CF01DF91CF910C94301780E090E0DF9182
:10279000CF910895FC0144815581FB01248135814D
:1027A0004217530741F40E949A1321E0892B09F044
:1027B00020E0822F089580E00895FC012481358176
:1027C000232B31F421E061157105A1F0FB0108C054
:1027D000FC01808191816115710531F421E0FC01DA
:1027E0008081882339F005C00E94301721E0892BB1
:1027F00009F020E0822F08950F931F93CF93DF936A
:10280000EB0141155105E9F02097D9F0FC016481F5
:10281000758126173707A0F4621B730B8A010150DC
:1028200011096017710708F48B01FC016081718147
:10283000620F731FA801CE010E944017C00FD11F65
:102840001882DF91CF911F910F910895CF93DF935D
:10285000FC01848195814817590778F4C081D181A2
:10286000FB0160817181CE01840F951F0E944F177B
:10287000009719F08C1B9D0B02C08FEF9FEFDF912B
:10288000CF91089540E050E00C942614BF92CF926F
:10289000DF92EF92FF920F931F93CF93DF936C0120
:1028A0007B01EA0189012417350720F48D2FE90106
:1028B000042F182F68E271E0C6010E94B311D701FE
:1028C00014968D919C911597C817D907C8F4801755
:1028D000910708F48C01D701ED91FC911197E00F5D
:1028E000F11FB08010826D917C916C0F7D1FC6012D
:1028F0000E944C12D701ED91FC91E00FF11FB082C4
:10290000C601DF91CF911F910F91FF90EF90DF9063
:10291000CF90BF900895FC0180819181009711F0C4
:102920000C94F01660E070E0CB0108950895A1E2E8
:102930001A2EAA1BBB1BFD010DC0AA1FBB1FEE1F39
:10294000FF1FA217B307E407F50720F0A21BB30B84
:10295000E40BF50B661F771F881F991F1A9469F700
:1029600060957095809590959B01AC01BD01CF015C
:102970000895052E97FB1EF400940E94D01457FD75
:1029800007D00E94971407FC03D04EF40C94D01487
:1029900050954095309521953F4F4F4F5F4F08958B
:1029A00090958095709561957F4F8F4F9F4F0895BB
:1029B000EE0FFF1F0590F491E02D0994EF920F9315
:1029C0001F93CF93DF93E80147FF02C034E101C0BA
:1029D00034E0E42FFF27E7FDF095F7FF03C0F19502
:1029E000E195F109E32E022F2E2FAE010E94EA1786
:1029F000CE01DF91CF911F910F91EF900895CF936A
:102A0000DF938230910510F482E090E0E091600362
:102A1000F091610320E030E0A0E0B0E0309739F1C0
:102A20004081518148175907B8F04817590771F488
:102A300082819381109729F013969C938E9312971D
:102A40002CC0909361038093600327C0211531054A
:102A500031F04217530718F0A901DB0101C0EF0163
:102A60009A01BD01DF010280F381E02DD7CF21154E
:102A70003105F9F0281B390B2430310580F48A81A7
:102A80009B816115710521F0FB019383828304C052
:102A90009093610380936003FE01329644C0FE016F
:102AA000E20FF31F819391932250310939832883D8
:102AB0003AC020915E0330915F03232B41F42091B3
:102AC00002013091030130935F0320935E03209154
:102AD0000001309101012115310541F42DB73EB7B8
:102AE0004091040150910501241B350BE0915E03D8
:102AF000F0915F03E217F307A0F42E1B3F0B28179A
:102B0000390778F0AC014E5F5F4F2417350748F066
:102B10004E0F5F1F50935F0340935E038193919329
:102B200002C0E0E0F0E0CF01DF91CF910895CF93B4
:102B3000DF93009709F487C0FC0132971382128259
:102B4000C0916003D0916103209781F4208131818D
:102B5000280F391F80915E0390915F0382179307BE
:102B600079F5F0935F03E0935E036DC0DE0120E032
:102B700030E0AE17BF0750F412964D915C91139759
:102B80009D014115510509F1DA01F3CFB383A28309
:102B900040815181840F951F8A179B0771F48D9195
:102BA0009C911197840F951F0296918380831296B2
:102BB0008D919C911397938382832115310529F47C
:102BC000F0936103E09360033EC0D9011396FC9338
:102BD000EE9312974D915D91A40FB51FEA17FB0775
:102BE00079F480819181840F951F0296D901119605
:102BF0009C938E938281938113969C938E931297CC
:102C0000E0E0F0E08A819B81009719F0FE01EC0181
:102C1000F9CFCE01029628813981820F931F20912E
:102C20005E0330915F032817390769F4309729F460
:102C3000109261031092600302C013821282D0933B
:102C40005F03C0935E03DF91CF910895A0E0B0E0F1
:102C5000ECE2F6E10C94541AEC01CB01209719F444
:102C60000E94FF14B8C0FE01E60FF71F9E0122501C
:102C70003109E217F30708F4ACC0D9010D911C919A
:102C8000119706171707B8F00530110508F49FC013
:102C9000A801445051094617570708F498C002503C
:102CA0001109061B170B019311936D937C93CF01B0
:102CB0000E9497158CC05B01A01AB10A4E01800ECC
:102CC000911EA0916003B0916103612C712C60E0B2
:102CD00070E0109709F449C0A815B905C9F5ED9041
:102CE000FC901197670142E0C40ED11CCA14DB04AA
:102CF00078F147018A189B08640142E0C40ED11C98
:102D00001296BC9012971396AC91B5E0CB16D104F5
:102D100040F0B282A38391828082D9018D939C93EB
:102D200009C00E5F1F4F0E0D1F1DF9011183008397
:102D3000EB2DFA2F6115710531F0DB011396FC9331
:102D4000EE93129744C0F0936103E09360033FC099
:102D50006D917C9111976616770608F43B01BD01D1
:102D600012960D90BC91A02DB4CF60915E0370912E
:102D70005F0368157905E9F468167906D0F4409187
:102D80000001509101014115510541F44DB75EB765
:102D90006091040170910501461B570BE417F5077C
:102DA000C0F4F0935F03E0935E03F90191838083A5
:102DB0000EC00E94FF147C01009759F0A801BE01CB
:102DC0000E942717CE010E949715C70104C0CE01AB
:102DD00002C080E090E0CDB7DEB7EEE00C94701A50
:102DE0001F93FC0199278827BC01E89411911032A8
:102DF000E9F3193010F01E30C8F31B3251F01D32C8
:102E000049F4689406C00E949917610F711D811DD5
:102E1000911D119110531A30B0F33EF490958095A6
:102E2000709561957F4F8F4F9F4F1F910895FB01C4
:102E3000DC0105900D920020E1F70895FC0105905A
:102E40000020E9F7809590958E0F9F1F0895FB0154
:102E5000DC0102C001900D9241505040D8F7089516
:102E6000FB01DC018D91019080190110D9F3990BC0
:102E70000895FB01DC0101900D920020E1F7089517
:102E8000FB01DC014150504048F001900D920020C0
:102E9000C9F701C01D9241505040E0F70895FB0171
:102EA00051915523A9F0BF01DC014D914517411106
:102EB000E1F759F4CD010190002049F04D91401502
:102EC0004111C9F3FB014111EFCF81E090E001977F
:102ED00008954532510520F4423010F00C947417D7
:102EE000FB011082CB010895BB274A3031F49923AE
:102EF00022F4BDE2909581959F4F0C94D117253215
:102F0000310520F4223010F00C948A17FA01108257
:102F1000CA010895BB272A3051F4992342F4BDE237
:102F200090958095709561957F4F8F4F9F4F0C9432
:102F3000AF17592F482F372F262F660F771F881F5F
:102F4000991F660F771F881F991F620F731F841FB9
:102F5000951F660F771F881F991F0895BB27FA01D9
:102F6000A62F6217710581059105330B30FB66F0C2
:102F7000AA27660F771F881F991FAA1FA21710F094
:102F8000A21B63953850A9F7A05DAA3308F0A95D8C
:102F9000A19336F7B111B1931082CA010C94401A73
:102FA000BB27FB015527AA27880F991FAA1FA41723
:102FB00010F0A41B83955051B9F7A05DAA3308F017
:102FC000A95DA193009779F7B111B1931192CB014B
:102FD0000C94401A6F927F929F92AF92BF92CF92C1
:102FE000DF92EF92FF920F931F93CF93DF93CDB7B2
:102FF000DEB729970FB6F894DEBF0FBECDBF6A01CA
:10300000B22E102F0C3320F4FF24F394F00E02C0E4
:103010004CE3F42E0F2D27E0AE014F5F5F4F0E946F
:1030200068197981272F2970213031F0E1FC06C021
:10303000E0FC06C060E005C06DE203C06BE201C0C9
:1030400060E2AE2DA07173FF36C0662311F084E0FC
:1030500001C083E08B1510F4B81A01C0B12CA11186
:103060000BC0F6018B2D90E2882319F091938150CB
:10307000FBCFCB0CD11CB12C662331F0F601608361
:1030800096012F5F3F4F6901C6010396E2FE05C01E
:103090002EE4F601208331E404C02EE6F6012083FD
:1030A00031E631832283FC012B2D30E22223F1F122
:1030B00031932150FBCF72FF40C0662311F084E0B2
:1030C00001C083E08B1510F4B81A01C0B12CA11116
:1030D0000BC0F6018B2D90E2882319F0919381505B
:1030E000FBCFCB0CD11CB12C662331F0F6016083F1
:1030F00096012F5F3F4F6901C6010396E2FE07C0AC
:1031000029E4F60120832EE4218326E406C029E683
:10311000F60120832EE6218326E62283FC012B2D57
:1031200030E2222319F031932150FBCFFC01EB0D4B
:10313000F11D10828EEF9FEFB7C0B1E0611101C0A9
:10314000B0E04B2F50E01816190624F49C012F5FB5
:103150003F4F02C021E030E0240F351F112329F03A
:10316000412F50E04F5F5F4F02C040E050E0420F00
:10317000531F2B2D30E04217530714F4B41A01C02B
:10318000B12C2E2D287159F4F6012B2D30E222237B
:1031900019F031932150FBCFCB0CD11CB12CBB23A8
:1031A00031F0F601608396012F5F3F4F6901A11155
:1031B0000BC0F6012B2D30E3222319F0319321505F
:1031C000FBCFCB0CD11CB12CF80E0A81372F3071FC
:1031D000A32E74FF03C0013309F4FA941F142CF4D6
:1031E0002F2D293018F028E001C021E0682F392F59
:1031F00097FF02C060E030E0462F532F612C712C06
:103200003EE2932EBC01621B71099B01DC01A41BF1
:10321000B50BE1E0F0E0EC0FFD1FAE0FBF1FE12E9C
:10322000F12CF194E194F1084F3FFFEF5F0731F487
:10323000F6019082B6016F5F7F4F6B01841795078F
:103240004CF02417350734F4BD01660D771DFB01E2
:10325000118101C010E341505109FFEF6F1A7F0A3D
:10326000B6016F5F7F4F4E155F0524F0F6011083A6
:103270006B01DACF4817590739F4063320F40533C8
:1032800019F4A11001C011E3F6011083FB018B2D8D
:1032900090E2882319F091938150FBCFFB01EB0D55
:1032A000F11D108280E090E029960FB6F894DEBF01
:1032B0000FBECDBFDF91CF911F910F91FF90EF9087
:1032C000DF90CF90BF90AF909F907F906F900895C8
:1032D000283008F027E03327DA01990F311D87FDE8
:1032E000916000966105710539F432602E5F3D935F
:1032F00030E32A95E1F708959F3F30F0803871055B
:10330000610509F03C5F3C5F3D93913008F08068B7
:10331000911DDF93CF931F930F93FF92EF92192F7D
:10332000987F9695E92F96959695E90FFF27E45A91
:10333000FE4F99273327EE24FF24A701E7010590CC
:103340000894079428F4360FE71EF81E491F511DF4
:10335000660F771F881F991F0694A1F705900794A1
:1033600028F4E70EF81E491F561FC11D770F881F4E
:10337000991F661F0694A1F70590079428F4F80E8C
:10338000491F561FC71FD11D880F991F661F771F22
:103390000694A1F70590079420F4490F561FC71F04
:1033A000D81F990F661F771F881F0694A9F784916D
:1033B0001095177041F0D695C79557954795F79496
:1033C000E7941A95C1F7E2E0F1E068941590159141
:1033D00035916591959105907FE27395E118F10A19
:1033E000430B560BC90BD009C0F7E10CF11E431F6C
:1033F000561FC91FD01D7EF4703311F48A95E6CF95
:10340000E894015030F0080F0AF40027021708F47E
:10341000202F2395022F7A3328F079E37D932A9584
:10342000E9F710C07D932A9589F6069497956795DC
:10343000379517951794E118F10A430B560BC90BF2
:10344000D00998F023957E9173957A3308F070E354
:103450007C932013B8F77E9170617D9330F0839553
:1034600071E37D9370E32A95E1F71124EF90FF90CB
:103470000F911F91CF91DF91992787FD9095089526
:10348000DC01FC01672F71917723E1F7329704C0CB
:103490007C916D9370836291AE17BF07C8F3089556
:1034A0002F923F924F925F926F927F928F929F9254
:1034B000AF92BF92CF92DF92EF92FF920F931F9342
:1034C000CF93DF93CDB7DEB7CA1BDB0B0FB6F894F3
:1034D000DEBF0FBECDBF09942A88398848885F8433
:1034E0006E847D848C849B84AA84B984C884DF80A4
:1034F000EE80FD800C811B81AA81B981CE0FD11D88
:103500000FB6F894DEBF0FBECDBFED01089512E0F7
:10351000C2E0D2E004C0FE010E94DA142296C43058
:08352000D107C9F7F894FFCFB1
:103528000000620380004000250023005700574335
:1035380000303030005752005753005600205020BA
:1035480000204820002046200020532000000000D2
:10355800001B09EE08C308CB08DE08ED08000000D0
:1035680000010C170C2A0C00000000010C170C7D40
:103578000C00000000130F8F10950EAE0EA00EF178
:023588000E0033
:00000001FF
